{
	"ERC-20/erc20.sol": {
		"NepToken": {
			"abi": [
				{
					"inputs": [],
					"stateMutability": "nonpayable",
					"type": "constructor"
				},
				{
					"anonymous": false,
					"inputs": [
						{
							"indexed": true,
							"internalType": "address",
							"name": "_owner",
							"type": "address"
						},
						{
							"indexed": true,
							"internalType": "address",
							"name": "_spender",
							"type": "address"
						},
						{
							"indexed": false,
							"internalType": "uint256",
							"name": "_value",
							"type": "uint256"
						}
					],
					"name": "Approval",
					"type": "event"
				},
				{
					"anonymous": false,
					"inputs": [
						{
							"indexed": true,
							"internalType": "address",
							"name": "_from",
							"type": "address"
						},
						{
							"indexed": true,
							"internalType": "address",
							"name": "_to",
							"type": "address"
						}
					],
					"name": "OwnershipTransferred",
					"type": "event"
				},
				{
					"anonymous": false,
					"inputs": [
						{
							"indexed": true,
							"internalType": "address",
							"name": "_from",
							"type": "address"
						},
						{
							"indexed": true,
							"internalType": "address",
							"name": "_to",
							"type": "address"
						},
						{
							"indexed": false,
							"internalType": "uint256",
							"name": "_value",
							"type": "uint256"
						}
					],
					"name": "Transfer",
					"type": "event"
				},
				{
					"anonymous": false,
					"inputs": [
						{
							"indexed": true,
							"internalType": "address",
							"name": "_from",
							"type": "address"
						},
						{
							"indexed": false,
							"internalType": "uint256",
							"name": "_value",
							"type": "uint256"
						}
					],
					"name": "burn",
					"type": "event"
				},
				{
					"anonymous": false,
					"inputs": [
						{
							"indexed": true,
							"internalType": "address",
							"name": "_from",
							"type": "address"
						},
						{
							"indexed": false,
							"internalType": "uint256",
							"name": "_value",
							"type": "uint256"
						}
					],
					"name": "mint",
					"type": "event"
				},
				{
					"inputs": [
						{
							"internalType": "uint256",
							"name": "_value",
							"type": "uint256"
						}
					],
					"name": "_burnToken",
					"outputs": [
						{
							"internalType": "bool",
							"name": "success",
							"type": "bool"
						}
					],
					"stateMutability": "nonpayable",
					"type": "function"
				},
				{
					"inputs": [],
					"name": "_decimal",
					"outputs": [
						{
							"internalType": "uint8",
							"name": "",
							"type": "uint8"
						}
					],
					"stateMutability": "view",
					"type": "function"
				},
				{
					"inputs": [
						{
							"internalType": "uint256",
							"name": "_value",
							"type": "uint256"
						}
					],
					"name": "_mintToken",
					"outputs": [
						{
							"internalType": "bool",
							"name": "success",
							"type": "bool"
						}
					],
					"stateMutability": "nonpayable",
					"type": "function"
				},
				{
					"inputs": [],
					"name": "_name",
					"outputs": [
						{
							"internalType": "string",
							"name": "",
							"type": "string"
						}
					],
					"stateMutability": "view",
					"type": "function"
				},
				{
					"inputs": [],
					"name": "_symbol",
					"outputs": [
						{
							"internalType": "string",
							"name": "",
							"type": "string"
						}
					],
					"stateMutability": "view",
					"type": "function"
				},
				{
					"inputs": [],
					"name": "_totalSupply",
					"outputs": [
						{
							"internalType": "uint256",
							"name": "",
							"type": "uint256"
						}
					],
					"stateMutability": "view",
					"type": "function"
				},
				{
					"inputs": [],
					"name": "acceptOwnership",
					"outputs": [],
					"stateMutability": "nonpayable",
					"type": "function"
				},
				{
					"inputs": [
						{
							"internalType": "address",
							"name": "_owner",
							"type": "address"
						},
						{
							"internalType": "address",
							"name": "_spender",
							"type": "address"
						}
					],
					"name": "allowance",
					"outputs": [
						{
							"internalType": "uint256",
							"name": "remaining",
							"type": "uint256"
						}
					],
					"stateMutability": "view",
					"type": "function"
				},
				{
					"inputs": [
						{
							"internalType": "address",
							"name": "_spender",
							"type": "address"
						},
						{
							"internalType": "uint256",
							"name": "_value",
							"type": "uint256"
						}
					],
					"name": "approve",
					"outputs": [
						{
							"internalType": "bool",
							"name": "success",
							"type": "bool"
						}
					],
					"stateMutability": "nonpayable",
					"type": "function"
				},
				{
					"inputs": [
						{
							"internalType": "address",
							"name": "_owner",
							"type": "address"
						}
					],
					"name": "balanceOf",
					"outputs": [
						{
							"internalType": "uint256",
							"name": "balance",
							"type": "uint256"
						}
					],
					"stateMutability": "view",
					"type": "function"
				},
				{
					"inputs": [],
					"name": "decimals",
					"outputs": [
						{
							"internalType": "uint8",
							"name": "",
							"type": "uint8"
						}
					],
					"stateMutability": "view",
					"type": "function"
				},
				{
					"inputs": [],
					"name": "name",
					"outputs": [
						{
							"internalType": "string",
							"name": "",
							"type": "string"
						}
					],
					"stateMutability": "view",
					"type": "function"
				},
				{
					"inputs": [],
					"name": "newOwner",
					"outputs": [
						{
							"internalType": "address",
							"name": "",
							"type": "address"
						}
					],
					"stateMutability": "view",
					"type": "function"
				},
				{
					"inputs": [],
					"name": "owner",
					"outputs": [
						{
							"internalType": "address",
							"name": "",
							"type": "address"
						}
					],
					"stateMutability": "view",
					"type": "function"
				},
				{
					"inputs": [],
					"name": "symbol",
					"outputs": [
						{
							"internalType": "string",
							"name": "",
							"type": "string"
						}
					],
					"stateMutability": "view",
					"type": "function"
				},
				{
					"inputs": [],
					"name": "totalSupply",
					"outputs": [
						{
							"internalType": "uint256",
							"name": "",
							"type": "uint256"
						}
					],
					"stateMutability": "view",
					"type": "function"
				},
				{
					"inputs": [
						{
							"internalType": "address",
							"name": "_to",
							"type": "address"
						},
						{
							"internalType": "uint256",
							"name": "_value",
							"type": "uint256"
						}
					],
					"name": "transfer",
					"outputs": [
						{
							"internalType": "bool",
							"name": "success",
							"type": "bool"
						}
					],
					"stateMutability": "nonpayable",
					"type": "function"
				},
				{
					"inputs": [
						{
							"internalType": "address",
							"name": "_from",
							"type": "address"
						},
						{
							"internalType": "address",
							"name": "_to",
							"type": "address"
						},
						{
							"internalType": "uint256",
							"name": "_value",
							"type": "uint256"
						}
					],
					"name": "transferFrom",
					"outputs": [
						{
							"internalType": "bool",
							"name": "success",
							"type": "bool"
						}
					],
					"stateMutability": "nonpayable",
					"type": "function"
				},
				{
					"inputs": [
						{
							"internalType": "address",
							"name": "_to",
							"type": "address"
						}
					],
					"name": "transferOwnership",
					"outputs": [],
					"stateMutability": "nonpayable",
					"type": "function"
				}
			],
			"devdoc": {
				"kind": "dev",
				"methods": {
					"_burnToken(uint256)": {
						"details": "destroy amount of token fron owner account burned amount reduces value from `totalSupply`. requirements:- 1. owner account cannot be zero address   2. owner account value cannot be zero and have atleast some amount of token."
					},
					"_mintToken(uint256)": {
						"details": "generates amount token in owner account. adds to the `totalSupply` inncreasing the token amount. requirement:- cannot be zero address"
					},
					"allowance(address,address)": {
						"details": "returns remaining number of token that sender will be allowed to sent on behalf of owner. value zero by default value changes when `approve` or `transferFrom` function are called."
					},
					"approve(address,uint256)": {
						"details": "sets amount as allowance of sender over callers token. returns value as indicaiton of successful operation."
					},
					"balanceOf(address)": {
						"details": "returns the amount of token owned by the account"
					},
					"decimals()": {
						"details": "sets the assigned decimal after the value"
					},
					"name()": {
						"details": "sets the name of the token"
					},
					"symbol()": {
						"details": "sets the symbol of the token"
					},
					"totalSupply()": {
						"details": "sets the total supply of the token returns the total supply of token in existence"
					},
					"transfer(address,uint256)": {
						"details": "sends amount of token to receipent account from sender account. returns value indicating if operation is suceeded."
					},
					"transferFrom(address,address,uint256)": {
						"details": "moves amount of token from the sender to receipent account amount is then deducted from sender account after transfer is confirmed"
					}
				},
				"version": 1
			},
			"evm": {
				"assembly": "    /* \"ERC-20/erc20.sol\":4882:8827  contract NepToken is ERC20Token, Owned {\r... */\n  mstore(0x40, 0x80)\n    /* \"ERC-20/erc20.sol\":5152:5292  constructor () {\r... */\n  callvalue\n  dup1\n  iszero\n  tag_1\n  jumpi\n  0x00\n  dup1\n  revert\ntag_1:\n  pop\n    /* \"ERC-20/erc20.sol\":4526:4536  msg.sender */\n  caller\n    /* \"ERC-20/erc20.sol\":4518:4523  owner */\n  0x00\n  dup1\n    /* \"ERC-20/erc20.sol\":4518:4536  owner = msg.sender */\n  0x0100\n  exp\n  dup2\n  sload\n  dup2\n  0xffffffffffffffffffffffffffffffffffffffff\n  mul\n  not\n  and\n  swap1\n  dup4\n  0xffffffffffffffffffffffffffffffffffffffff\n  and\n  mul\n  or\n  swap1\n  sstore\n  pop\n    /* \"ERC-20/erc20.sol\":5178:5194  _symbol = \"NepT\" */\n  mload(0x40)\n  dup1\n  0x40\n  add\n  0x40\n  mstore\n  dup1\n  0x04\n  dup2\n  mstore\n  0x20\n  add\n  0x4e65705400000000000000000000000000000000000000000000000000000000\n  dup2\n  mstore\n  pop\n    /* \"ERC-20/erc20.sol\":5178:5185  _symbol */\n  0x02\n    /* \"ERC-20/erc20.sol\":5178:5194  _symbol = \"NepT\" */\n  swap1\n  dup1\n  mload\n  swap1\n  0x20\n  add\n  swap1\n  tag_6\n  swap3\n  swap2\n  swap1\n  tag_7\n  jump\t// in\ntag_6:\n  pop\n    /* \"ERC-20/erc20.sol\":5205:5223  _name = \"NepToken\" */\n  mload(0x40)\n  dup1\n  0x40\n  add\n  0x40\n  mstore\n  dup1\n  0x08\n  dup2\n  mstore\n  0x20\n  add\n  0x4e6570546f6b656e000000000000000000000000000000000000000000000000\n  dup2\n  mstore\n  pop\n    /* \"ERC-20/erc20.sol\":5205:5210  _name */\n  0x03\n    /* \"ERC-20/erc20.sol\":5205:5223  _name = \"NepToken\" */\n  swap1\n  dup1\n  mload\n  swap1\n  0x20\n  add\n  swap1\n  tag_8\n  swap3\n  swap2\n  swap1\n  tag_7\n  jump\t// in\ntag_8:\n  pop\n    /* \"ERC-20/erc20.sol\":5245:5247  18 */\n  0x12\n    /* \"ERC-20/erc20.sol\":5234:5242  _decimal */\n  0x04\n  0x00\n    /* \"ERC-20/erc20.sol\":5234:5247  _decimal = 18 */\n  0x0100\n  exp\n  dup2\n  sload\n  dup2\n  0xff\n  mul\n  not\n  and\n  swap1\n  dup4\n  0xff\n  and\n  mul\n  or\n  swap1\n  sstore\n  pop\n    /* \"ERC-20/erc20.sol\":5273:5274  0 */\n  0x00\n    /* \"ERC-20/erc20.sol\":5258:5270  _totalSupply */\n  0x05\n    /* \"ERC-20/erc20.sol\":5258:5274  _totalSupply = 0 */\n  dup2\n  swap1\n  sstore\n  pop\n    /* \"ERC-20/erc20.sol\":4882:8827  contract NepToken is ERC20Token, Owned {\r... */\n  jump(tag_9)\ntag_7:\n  dup3\n  dup1\n  sload\n  tag_10\n  swap1\n  tag_11\n  jump\t// in\ntag_10:\n  swap1\n  0x00\n  mstore\n  keccak256(0x00, 0x20)\n  swap1\n  0x1f\n  add\n  0x20\n  swap1\n  div\n  dup2\n  add\n  swap3\n  dup3\n  tag_13\n  jumpi\n  0x00\n  dup6\n  sstore\n  jump(tag_12)\ntag_13:\n  dup3\n  0x1f\n  lt\n  tag_14\n  jumpi\n  dup1\n  mload\n  not(0xff)\n  and\n  dup4\n  dup1\n  add\n  or\n  dup6\n  sstore\n  jump(tag_12)\ntag_14:\n  dup3\n  dup1\n  add\n  0x01\n  add\n  dup6\n  sstore\n  dup3\n  iszero\n  tag_12\n  jumpi\n  swap2\n  dup3\n  add\ntag_15:\n  dup3\n  dup2\n  gt\n  iszero\n  tag_16\n  jumpi\n  dup3\n  mload\n  dup3\n  sstore\n  swap2\n  0x20\n  add\n  swap2\n  swap1\n  0x01\n  add\n  swap1\n  jump(tag_15)\ntag_16:\ntag_12:\n  pop\n  swap1\n  pop\n  tag_17\n  swap2\n  swap1\n  tag_18\n  jump\t// in\ntag_17:\n  pop\n  swap1\n  jump\t// out\ntag_18:\ntag_19:\n  dup1\n  dup3\n  gt\n  iszero\n  tag_20\n  jumpi\n  0x00\n  dup2\n  0x00\n  swap1\n  sstore\n  pop\n  0x01\n  add\n  jump(tag_19)\ntag_20:\n  pop\n  swap1\n  jump\t// out\n    /* \"#utility.yul\":7:327   */\ntag_11:\n    /* \"#utility.yul\":51:57   */\n  0x00\n    /* \"#utility.yul\":88:89   */\n  0x02\n    /* \"#utility.yul\":82:86   */\n  dup3\n    /* \"#utility.yul\":78:90   */\n  div\n    /* \"#utility.yul\":68:90   */\n  swap1\n  pop\n    /* \"#utility.yul\":135:136   */\n  0x01\n    /* \"#utility.yul\":129:133   */\n  dup3\n    /* \"#utility.yul\":125:137   */\n  and\n    /* \"#utility.yul\":156:174   */\n  dup1\n    /* \"#utility.yul\":146:227   */\n  tag_23\n  jumpi\n    /* \"#utility.yul\":212:216   */\n  0x7f\n    /* \"#utility.yul\":204:210   */\n  dup3\n    /* \"#utility.yul\":200:217   */\n  and\n    /* \"#utility.yul\":190:217   */\n  swap2\n  pop\n    /* \"#utility.yul\":146:227   */\ntag_23:\n    /* \"#utility.yul\":274:276   */\n  0x20\n    /* \"#utility.yul\":266:272   */\n  dup3\n    /* \"#utility.yul\":263:277   */\n  lt\n    /* \"#utility.yul\":243:261   */\n  dup2\n    /* \"#utility.yul\":240:278   */\n  eq\n    /* \"#utility.yul\":237:321   */\n  iszero\n  tag_24\n  jumpi\n    /* \"#utility.yul\":293:311   */\n  tag_25\n  tag_26\n  jump\t// in\ntag_25:\n    /* \"#utility.yul\":237:321   */\ntag_24:\n    /* \"#utility.yul\":58:327   */\n  pop\n    /* \"#utility.yul\":7:327   */\n  swap2\n  swap1\n  pop\n  jump\t// out\n    /* \"#utility.yul\":333:513   */\ntag_26:\n    /* \"#utility.yul\":381:458   */\n  0x4e487b7100000000000000000000000000000000000000000000000000000000\n    /* \"#utility.yul\":378:379   */\n  0x00\n    /* \"#utility.yul\":371:459   */\n  mstore\n    /* \"#utility.yul\":478:482   */\n  0x22\n    /* \"#utility.yul\":475:476   */\n  0x04\n    /* \"#utility.yul\":468:483   */\n  mstore\n    /* \"#utility.yul\":502:506   */\n  0x24\n    /* \"#utility.yul\":499:500   */\n  0x00\n    /* \"#utility.yul\":492:507   */\n  revert\n    /* \"ERC-20/erc20.sol\":4882:8827  contract NepToken is ERC20Token, Owned {\r... */\ntag_9:\n  dataSize(sub_0)\n  dup1\n  dataOffset(sub_0)\n  0x00\n  codecopy\n  0x00\n  return\nstop\n\nsub_0: assembly {\n        /* \"ERC-20/erc20.sol\":4882:8827  contract NepToken is ERC20Token, Owned {\r... */\n      mstore(0x40, 0x80)\n      callvalue\n      dup1\n      iszero\n      tag_1\n      jumpi\n      0x00\n      dup1\n      revert\n    tag_1:\n      pop\n      jumpi(tag_2, lt(calldatasize, 0x04))\n      shr(0xe0, calldataload(0x00))\n      dup1\n      0x7a81eced\n      gt\n      tag_22\n      jumpi\n      dup1\n      0xb09f1266\n      gt\n      tag_23\n      jumpi\n      dup1\n      0xb09f1266\n      eq\n      tag_17\n      jumpi\n      dup1\n      0xd28d8852\n      eq\n      tag_18\n      jumpi\n      dup1\n      0xd4ee1d90\n      eq\n      tag_19\n      jumpi\n      dup1\n      0xdd62ed3e\n      eq\n      tag_20\n      jumpi\n      dup1\n      0xf2fde38b\n      eq\n      tag_21\n      jumpi\n      jump(tag_2)\n    tag_23:\n      dup1\n      0x7a81eced\n      eq\n      tag_12\n      jumpi\n      dup1\n      0x8da5cb5b\n      eq\n      tag_13\n      jumpi\n      dup1\n      0x95d89b41\n      eq\n      tag_14\n      jumpi\n      dup1\n      0x97b4e10a\n      eq\n      tag_15\n      jumpi\n      dup1\n      0xa9059cbb\n      eq\n      tag_16\n      jumpi\n      jump(tag_2)\n    tag_22:\n      dup1\n      0x2f0e3120\n      gt\n      tag_24\n      jumpi\n      dup1\n      0x2f0e3120\n      eq\n      tag_7\n      jumpi\n      dup1\n      0x313ce567\n      eq\n      tag_8\n      jumpi\n      dup1\n      0x3eaaf86b\n      eq\n      tag_9\n      jumpi\n      dup1\n      0x70a08231\n      eq\n      tag_10\n      jumpi\n      dup1\n      0x79ba5097\n      eq\n      tag_11\n      jumpi\n      jump(tag_2)\n    tag_24:\n      dup1\n      0x06fdde03\n      eq\n      tag_3\n      jumpi\n      dup1\n      0x095ea7b3\n      eq\n      tag_4\n      jumpi\n      dup1\n      0x18160ddd\n      eq\n      tag_5\n      jumpi\n      dup1\n      0x23b872dd\n      eq\n      tag_6\n      jumpi\n    tag_2:\n      0x00\n      dup1\n      revert\n        /* \"ERC-20/erc20.sol\":5357:5449  function name() public override view returns (string memory) {\r... */\n    tag_3:\n      tag_25\n      tag_26\n      jump\t// in\n    tag_25:\n      mload(0x40)\n      tag_27\n      swap2\n      swap1\n      tag_28\n      jump\t// in\n    tag_27:\n      mload(0x40)\n      dup1\n      swap2\n      sub\n      swap1\n      return\n        /* \"ERC-20/erc20.sol\":7234:7457  function approve(address _spender, uint256 _value) public override returns (bool success) {\r... */\n    tag_4:\n      tag_29\n      0x04\n      dup1\n      calldatasize\n      sub\n      dup2\n      add\n      swap1\n      tag_30\n      swap2\n      swap1\n      tag_31\n      jump\t// in\n    tag_30:\n      tag_32\n      jump\t// in\n    tag_29:\n      mload(0x40)\n      tag_33\n      swap2\n      swap1\n      tag_34\n      jump\t// in\n    tag_33:\n      mload(0x40)\n      dup1\n      swap2\n      sub\n      swap1\n      return\n        /* \"ERC-20/erc20.sol\":5906:6006  function totalSupply() public override view returns (uint256) {\r... */\n    tag_5:\n      tag_35\n      tag_36\n      jump\t// in\n    tag_35:\n      mload(0x40)\n      tag_37\n      swap2\n      swap1\n      tag_38\n      jump\t// in\n    tag_37:\n      mload(0x40)\n      dup1\n      swap2\n      sub\n      swap1\n      return\n        /* \"ERC-20/erc20.sol\":6390:6774  function transferFrom(address _from, address _to, uint256 _value) public override returns (bool success) {\r... */\n    tag_6:\n      tag_39\n      0x04\n      dup1\n      calldatasize\n      sub\n      dup2\n      add\n      swap1\n      tag_40\n      swap2\n      swap1\n      tag_41\n      jump\t// in\n    tag_40:\n      tag_42\n      jump\t// in\n    tag_39:\n      mload(0x40)\n      tag_43\n      swap2\n      swap1\n      tag_34\n      jump\t// in\n    tag_43:\n      mload(0x40)\n      dup1\n      swap2\n      sub\n      swap1\n      return\n        /* \"ERC-20/erc20.sol\":4984:5005  uint8 public _decimal */\n    tag_7:\n      tag_44\n      tag_45\n      jump\t// in\n    tag_44:\n      mload(0x40)\n      tag_46\n      swap2\n      swap1\n      tag_47\n      jump\t// in\n    tag_46:\n      mload(0x40)\n      dup1\n      swap2\n      sub\n      swap1\n      return\n        /* \"ERC-20/erc20.sol\":5690:5781  function decimals() public override view returns (uint8) {\r... */\n    tag_8:\n      tag_48\n      tag_49\n      jump\t// in\n    tag_48:\n      mload(0x40)\n      tag_50\n      swap2\n      swap1\n      tag_47\n      jump\t// in\n    tag_50:\n      mload(0x40)\n      dup1\n      swap2\n      sub\n      swap1\n      return\n        /* \"ERC-20/erc20.sol\":5012:5036  uint public _totalSupply */\n    tag_9:\n      tag_51\n      tag_52\n      jump\t// in\n    tag_51:\n      mload(0x40)\n      tag_53\n      swap2\n      swap1\n      tag_38\n      jump\t// in\n    tag_53:\n      mload(0x40)\n      dup1\n      swap2\n      sub\n      swap1\n      return\n        /* \"ERC-20/erc20.sol\":6091:6215  function balanceOf(address _owner) public override view returns (uint256 balance) {\r... */\n    tag_10:\n      tag_54\n      0x04\n      dup1\n      calldatasize\n      sub\n      dup2\n      add\n      swap1\n      tag_55\n      swap2\n      swap1\n      tag_56\n      jump\t// in\n    tag_55:\n      tag_57\n      jump\t// in\n    tag_54:\n      mload(0x40)\n      tag_58\n      swap2\n      swap1\n      tag_38\n      jump\t// in\n    tag_58:\n      mload(0x40)\n      dup1\n      swap2\n      sub\n      swap1\n      return\n        /* \"ERC-20/erc20.sol\":4679:4875  function acceptOwnership() public {\r... */\n    tag_11:\n      tag_59\n      tag_60\n      jump\t// in\n    tag_59:\n      stop\n        /* \"ERC-20/erc20.sol\":8027:8258  function _mintToken(uint256 _value)  public  returns (bool success) {\r... */\n    tag_12:\n      tag_61\n      0x04\n      dup1\n      calldatasize\n      sub\n      dup2\n      add\n      swap1\n      tag_62\n      swap2\n      swap1\n      tag_63\n      jump\t// in\n    tag_62:\n      tag_64\n      jump\t// in\n    tag_61:\n      mload(0x40)\n      tag_65\n      swap2\n      swap1\n      tag_34\n      jump\t// in\n    tag_65:\n      mload(0x40)\n      dup1\n      swap2\n      sub\n      swap1\n      return\n        /* \"ERC-20/erc20.sol\":4355:4375  address public owner */\n    tag_13:\n      tag_66\n      tag_67\n      jump\t// in\n    tag_66:\n      mload(0x40)\n      tag_68\n      swap2\n      swap1\n      tag_69\n      jump\t// in\n    tag_68:\n      mload(0x40)\n      dup1\n      swap2\n      sub\n      swap1\n      return\n        /* \"ERC-20/erc20.sol\":5516:5612  function symbol() public override view returns (string memory) {\r... */\n    tag_14:\n      tag_70\n      tag_71\n      jump\t// in\n    tag_70:\n      mload(0x40)\n      tag_72\n      swap2\n      swap1\n      tag_28\n      jump\t// in\n    tag_72:\n      mload(0x40)\n      dup1\n      swap2\n      sub\n      swap1\n      return\n        /* \"ERC-20/erc20.sol\":8552:8822  function _burnToken( uint256 _value) public returns(bool success) {\r... */\n    tag_15:\n      tag_73\n      0x04\n      dup1\n      calldatasize\n      sub\n      dup2\n      add\n      swap1\n      tag_74\n      swap2\n      swap1\n      tag_63\n      jump\t// in\n    tag_74:\n      tag_75\n      jump\t// in\n    tag_73:\n      mload(0x40)\n      tag_76\n      swap2\n      swap1\n      tag_34\n      jump\t// in\n    tag_76:\n      mload(0x40)\n      dup1\n      swap2\n      sub\n      swap1\n      return\n        /* \"ERC-20/erc20.sol\":6933:7082  function transfer(address _to, uint256 _value) public override returns (bool success) {\r... */\n    tag_16:\n      tag_77\n      0x04\n      dup1\n      calldatasize\n      sub\n      dup2\n      add\n      swap1\n      tag_78\n      swap2\n      swap1\n      tag_31\n      jump\t// in\n    tag_78:\n      tag_79\n      jump\t// in\n    tag_77:\n      mload(0x40)\n      tag_80\n      swap2\n      swap1\n      tag_34\n      jump\t// in\n    tag_80:\n      mload(0x40)\n      dup1\n      swap2\n      sub\n      swap1\n      return\n        /* \"ERC-20/erc20.sol\":4930:4951  string public _symbol */\n    tag_17:\n      tag_81\n      tag_82\n      jump\t// in\n    tag_81:\n      mload(0x40)\n      tag_83\n      swap2\n      swap1\n      tag_28\n      jump\t// in\n    tag_83:\n      mload(0x40)\n      dup1\n      swap2\n      sub\n      swap1\n      return\n        /* \"ERC-20/erc20.sol\":4958:4977  string public _name */\n    tag_18:\n      tag_84\n      tag_85\n      jump\t// in\n    tag_84:\n      mload(0x40)\n      tag_86\n      swap2\n      swap1\n      tag_28\n      jump\t// in\n    tag_86:\n      mload(0x40)\n      dup1\n      swap2\n      sub\n      swap1\n      return\n        /* \"ERC-20/erc20.sol\":4382:4405  address public newOwner */\n    tag_19:\n      tag_87\n      tag_88\n      jump\t// in\n    tag_87:\n      mload(0x40)\n      tag_89\n      swap2\n      swap1\n      tag_69\n      jump\t// in\n    tag_89:\n      mload(0x40)\n      dup1\n      swap2\n      sub\n      swap1\n      return\n        /* \"ERC-20/erc20.sol\":7688:7841  function allowance(address _owner, address _spender) public override view returns (uint256 remaining) {\r... */\n    tag_20:\n      tag_90\n      0x04\n      dup1\n      calldatasize\n      sub\n      dup2\n      add\n      swap1\n      tag_91\n      swap2\n      swap1\n      tag_92\n      jump\t// in\n    tag_91:\n      tag_93\n      jump\t// in\n    tag_90:\n      mload(0x40)\n      tag_94\n      swap2\n      swap1\n      tag_38\n      jump\t// in\n    tag_94:\n      mload(0x40)\n      dup1\n      swap2\n      sub\n      swap1\n      return\n        /* \"ERC-20/erc20.sol\":4552:4671  function transferOwnership(address _to) public {\r... */\n    tag_21:\n      tag_95\n      0x04\n      dup1\n      calldatasize\n      sub\n      dup2\n      add\n      swap1\n      tag_96\n      swap2\n      swap1\n      tag_56\n      jump\t// in\n    tag_96:\n      tag_97\n      jump\t// in\n    tag_95:\n      stop\n        /* \"ERC-20/erc20.sol\":5357:5449  function name() public override view returns (string memory) {\r... */\n    tag_26:\n        /* \"ERC-20/erc20.sol\":5403:5416  string memory */\n      0x60\n        /* \"ERC-20/erc20.sol\":5436:5441  _name */\n      0x03\n        /* \"ERC-20/erc20.sol\":5429:5441  return _name */\n      dup1\n      sload\n      tag_99\n      swap1\n      tag_100\n      jump\t// in\n    tag_99:\n      dup1\n      0x1f\n      add\n      0x20\n      dup1\n      swap2\n      div\n      mul\n      0x20\n      add\n      mload(0x40)\n      swap1\n      dup2\n      add\n      0x40\n      mstore\n      dup1\n      swap3\n      swap2\n      swap1\n      dup2\n      dup2\n      mstore\n      0x20\n      add\n      dup3\n      dup1\n      sload\n      tag_101\n      swap1\n      tag_100\n      jump\t// in\n    tag_101:\n      dup1\n      iszero\n      tag_102\n      jumpi\n      dup1\n      0x1f\n      lt\n      tag_103\n      jumpi\n      0x0100\n      dup1\n      dup4\n      sload\n      div\n      mul\n      dup4\n      mstore\n      swap2\n      0x20\n      add\n      swap2\n      jump(tag_102)\n    tag_103:\n      dup3\n      add\n      swap2\n      swap1\n      0x00\n      mstore\n      keccak256(0x00, 0x20)\n      swap1\n    tag_104:\n      dup2\n      sload\n      dup2\n      mstore\n      swap1\n      0x01\n      add\n      swap1\n      0x20\n      add\n      dup1\n      dup4\n      gt\n      tag_104\n      jumpi\n      dup3\n      swap1\n      sub\n      0x1f\n      and\n      dup3\n      add\n      swap2\n    tag_102:\n      pop\n      pop\n      pop\n      pop\n      pop\n      swap1\n      pop\n        /* \"ERC-20/erc20.sol\":5357:5449  function name() public override view returns (string memory) {\r... */\n      swap1\n      jump\t// out\n        /* \"ERC-20/erc20.sol\":7234:7457  function approve(address _spender, uint256 _value) public override returns (bool success) {\r... */\n    tag_32:\n        /* \"ERC-20/erc20.sol\":7310:7322  bool success */\n      0x00\n        /* \"ERC-20/erc20.sol\":7367:7373  _value */\n      dup2\n        /* \"ERC-20/erc20.sol\":7335:7342  allowed */\n      0x07\n        /* \"ERC-20/erc20.sol\":7335:7354  allowed[msg.sender] */\n      0x00\n        /* \"ERC-20/erc20.sol\":7343:7353  msg.sender */\n      caller\n        /* \"ERC-20/erc20.sol\":7335:7354  allowed[msg.sender] */\n      0xffffffffffffffffffffffffffffffffffffffff\n      and\n      0xffffffffffffffffffffffffffffffffffffffff\n      and\n      dup2\n      mstore\n      0x20\n      add\n      swap1\n      dup2\n      mstore\n      0x20\n      add\n      0x00\n      keccak256\n        /* \"ERC-20/erc20.sol\":7335:7364  allowed[msg.sender][_spender] */\n      0x00\n        /* \"ERC-20/erc20.sol\":7355:7363  _spender */\n      dup6\n        /* \"ERC-20/erc20.sol\":7335:7364  allowed[msg.sender][_spender] */\n      0xffffffffffffffffffffffffffffffffffffffff\n      and\n      0xffffffffffffffffffffffffffffffffffffffff\n      and\n      dup2\n      mstore\n      0x20\n      add\n      swap1\n      dup2\n      mstore\n      0x20\n      add\n      0x00\n      keccak256\n        /* \"ERC-20/erc20.sol\":7335:7373  allowed[msg.sender][_spender] = _value */\n      dup2\n      swap1\n      sstore\n      pop\n        /* \"ERC-20/erc20.sol\":7410:7418  _spender */\n      dup3\n        /* \"ERC-20/erc20.sol\":7389:7427  Approval(msg.sender, _spender, _value) */\n      0xffffffffffffffffffffffffffffffffffffffff\n      and\n        /* \"ERC-20/erc20.sol\":7398:7408  msg.sender */\n      caller\n        /* \"ERC-20/erc20.sol\":7389:7427  Approval(msg.sender, _spender, _value) */\n      0xffffffffffffffffffffffffffffffffffffffff\n      and\n      0x8c5be1e5ebec7d5bd14f71427d1e84f3dd0314c0f7b2291e5b200ac8c7c3b925\n        /* \"ERC-20/erc20.sol\":7420:7426  _value */\n      dup5\n        /* \"ERC-20/erc20.sol\":7389:7427  Approval(msg.sender, _spender, _value) */\n      mload(0x40)\n      tag_106\n      swap2\n      swap1\n      tag_38\n      jump\t// in\n    tag_106:\n      mload(0x40)\n      dup1\n      swap2\n      sub\n      swap1\n      log3\n        /* \"ERC-20/erc20.sol\":7445:7449  true */\n      0x01\n        /* \"ERC-20/erc20.sol\":7438:7449  return true */\n      swap1\n      pop\n        /* \"ERC-20/erc20.sol\":7234:7457  function approve(address _spender, uint256 _value) public override returns (bool success) {\r... */\n      swap3\n      swap2\n      pop\n      pop\n      jump\t// out\n        /* \"ERC-20/erc20.sol\":5906:6006  function totalSupply() public override view returns (uint256) {\r... */\n    tag_36:\n        /* \"ERC-20/erc20.sol\":5959:5966  uint256 */\n      0x00\n        /* \"ERC-20/erc20.sol\":5986:5998  _totalSupply */\n      sload(0x05)\n        /* \"ERC-20/erc20.sol\":5979:5998  return _totalSupply */\n      swap1\n      pop\n        /* \"ERC-20/erc20.sol\":5906:6006  function totalSupply() public override view returns (uint256) {\r... */\n      swap1\n      jump\t// out\n        /* \"ERC-20/erc20.sol\":6390:6774  function transferFrom(address _from, address _to, uint256 _value) public override returns (bool success) {\r... */\n    tag_42:\n        /* \"ERC-20/erc20.sol\":6481:6493  bool success */\n      0x00\n        /* \"ERC-20/erc20.sol\":6533:6539  _value */\n      dup2\n        /* \"ERC-20/erc20.sol\":6514:6522  balances */\n      0x06\n        /* \"ERC-20/erc20.sol\":6514:6529  balances[_from] */\n      0x00\n        /* \"ERC-20/erc20.sol\":6523:6528  _from */\n      dup7\n        /* \"ERC-20/erc20.sol\":6514:6529  balances[_from] */\n      0xffffffffffffffffffffffffffffffffffffffff\n      and\n      0xffffffffffffffffffffffffffffffffffffffff\n      and\n      dup2\n      mstore\n      0x20\n      add\n      swap1\n      dup2\n      mstore\n      0x20\n      add\n      0x00\n      keccak256\n      sload\n        /* \"ERC-20/erc20.sol\":6514:6539  balances[_from] >= _value */\n      lt\n      iszero\n        /* \"ERC-20/erc20.sol\":6506:6540  require(balances[_from] >= _value) */\n      tag_109\n      jumpi\n      0x00\n      dup1\n      revert\n    tag_109:\n        /* \"ERC-20/erc20.sol\":6570:6576  _value */\n      dup2\n        /* \"ERC-20/erc20.sol\":6551:6559  balances */\n      0x06\n        /* \"ERC-20/erc20.sol\":6551:6566  balances[_from] */\n      0x00\n        /* \"ERC-20/erc20.sol\":6560:6565  _from */\n      dup7\n        /* \"ERC-20/erc20.sol\":6551:6566  balances[_from] */\n      0xffffffffffffffffffffffffffffffffffffffff\n      and\n      0xffffffffffffffffffffffffffffffffffffffff\n      and\n      dup2\n      mstore\n      0x20\n      add\n      swap1\n      dup2\n      mstore\n      0x20\n      add\n      0x00\n      keccak256\n      0x00\n        /* \"ERC-20/erc20.sol\":6551:6576  balances[_from] -= _value */\n      dup3\n      dup3\n      sload\n      tag_110\n      swap2\n      swap1\n      tag_111\n      jump\t// in\n    tag_110:\n      swap3\n      pop\n      pop\n      dup2\n      swap1\n      sstore\n      pop\n        /* \"ERC-20/erc20.sol\":6650:6656  _value */\n      dup2\n        /* \"ERC-20/erc20.sol\":6633:6641  balances */\n      0x06\n        /* \"ERC-20/erc20.sol\":6633:6646  balances[_to] */\n      0x00\n        /* \"ERC-20/erc20.sol\":6642:6645  _to */\n      dup6\n        /* \"ERC-20/erc20.sol\":6633:6646  balances[_to] */\n      0xffffffffffffffffffffffffffffffffffffffff\n      and\n      0xffffffffffffffffffffffffffffffffffffffff\n      and\n      dup2\n      mstore\n      0x20\n      add\n      swap1\n      dup2\n      mstore\n      0x20\n      add\n      0x00\n      keccak256\n      0x00\n        /* \"ERC-20/erc20.sol\":6633:6656  balances[_to] += _value */\n      dup3\n      dup3\n      sload\n      tag_112\n      swap2\n      swap1\n      tag_113\n      jump\t// in\n    tag_112:\n      swap3\n      pop\n      pop\n      dup2\n      swap1\n      sstore\n      pop\n        /* \"ERC-20/erc20.sol\":6732:6735  _to */\n      dup3\n        /* \"ERC-20/erc20.sol\":6716:6744  Transfer(_from, _to, _value) */\n      0xffffffffffffffffffffffffffffffffffffffff\n      and\n        /* \"ERC-20/erc20.sol\":6725:6730  _from */\n      dup5\n        /* \"ERC-20/erc20.sol\":6716:6744  Transfer(_from, _to, _value) */\n      0xffffffffffffffffffffffffffffffffffffffff\n      and\n      0xddf252ad1be2c89b69c2b068fc378daa952ba7f163c4a11628f55a4df523b3ef\n        /* \"ERC-20/erc20.sol\":6737:6743  _value */\n      dup5\n        /* \"ERC-20/erc20.sol\":6716:6744  Transfer(_from, _to, _value) */\n      mload(0x40)\n      tag_114\n      swap2\n      swap1\n      tag_38\n      jump\t// in\n    tag_114:\n      mload(0x40)\n      dup1\n      swap2\n      sub\n      swap1\n      log3\n        /* \"ERC-20/erc20.sol\":6762:6766  true */\n      0x01\n        /* \"ERC-20/erc20.sol\":6755:6766  return true */\n      swap1\n      pop\n        /* \"ERC-20/erc20.sol\":6390:6774  function transferFrom(address _from, address _to, uint256 _value) public override returns (bool success) {\r... */\n      swap4\n      swap3\n      pop\n      pop\n      pop\n      jump\t// out\n        /* \"ERC-20/erc20.sol\":4984:5005  uint8 public _decimal */\n    tag_45:\n      0x04\n      0x00\n      swap1\n      sload\n      swap1\n      0x0100\n      exp\n      swap1\n      div\n      0xff\n      and\n      dup2\n      jump\t// out\n        /* \"ERC-20/erc20.sol\":5690:5781  function decimals() public override view returns (uint8) {\r... */\n    tag_49:\n        /* \"ERC-20/erc20.sol\":5740:5745  uint8 */\n      0x00\n        /* \"ERC-20/erc20.sol\":5765:5773  _decimal */\n      0x04\n      0x00\n      swap1\n      sload\n      swap1\n      0x0100\n      exp\n      swap1\n      div\n      0xff\n      and\n        /* \"ERC-20/erc20.sol\":5758:5773  return _decimal */\n      swap1\n      pop\n        /* \"ERC-20/erc20.sol\":5690:5781  function decimals() public override view returns (uint8) {\r... */\n      swap1\n      jump\t// out\n        /* \"ERC-20/erc20.sol\":5012:5036  uint public _totalSupply */\n    tag_52:\n      sload(0x05)\n      dup2\n      jump\t// out\n        /* \"ERC-20/erc20.sol\":6091:6215  function balanceOf(address _owner) public override view returns (uint256 balance) {\r... */\n    tag_57:\n        /* \"ERC-20/erc20.sol\":6156:6171  uint256 balance */\n      0x00\n        /* \"ERC-20/erc20.sol\":6191:6199  balances */\n      0x06\n        /* \"ERC-20/erc20.sol\":6191:6207  balances[_owner] */\n      0x00\n        /* \"ERC-20/erc20.sol\":6200:6206  _owner */\n      dup4\n        /* \"ERC-20/erc20.sol\":6191:6207  balances[_owner] */\n      0xffffffffffffffffffffffffffffffffffffffff\n      and\n      0xffffffffffffffffffffffffffffffffffffffff\n      and\n      dup2\n      mstore\n      0x20\n      add\n      swap1\n      dup2\n      mstore\n      0x20\n      add\n      0x00\n      keccak256\n      sload\n        /* \"ERC-20/erc20.sol\":6184:6207  return balances[_owner] */\n      swap1\n      pop\n        /* \"ERC-20/erc20.sol\":6091:6215  function balanceOf(address _owner) public override view returns (uint256 balance) {\r... */\n      swap2\n      swap1\n      pop\n      jump\t// out\n        /* \"ERC-20/erc20.sol\":4679:4875  function acceptOwnership() public {\r... */\n    tag_60:\n        /* \"ERC-20/erc20.sol\":4746:4754  newOwner */\n      0x01\n      0x00\n      swap1\n      sload\n      swap1\n      0x0100\n      exp\n      swap1\n      div\n      0xffffffffffffffffffffffffffffffffffffffff\n      and\n        /* \"ERC-20/erc20.sol\":4732:4754  msg.sender == newOwner */\n      0xffffffffffffffffffffffffffffffffffffffff\n      and\n        /* \"ERC-20/erc20.sol\":4732:4742  msg.sender */\n      caller\n        /* \"ERC-20/erc20.sol\":4732:4754  msg.sender == newOwner */\n      0xffffffffffffffffffffffffffffffffffffffff\n      and\n      eq\n        /* \"ERC-20/erc20.sol\":4724:4755  require(msg.sender == newOwner) */\n      tag_118\n      jumpi\n      0x00\n      dup1\n      revert\n    tag_118:\n        /* \"ERC-20/erc20.sol\":4799:4807  newOwner */\n      0x01\n      0x00\n      swap1\n      sload\n      swap1\n      0x0100\n      exp\n      swap1\n      div\n      0xffffffffffffffffffffffffffffffffffffffff\n      and\n        /* \"ERC-20/erc20.sol\":4771:4808  OwnershipTransferred(owner, newOwner) */\n      0xffffffffffffffffffffffffffffffffffffffff\n      and\n        /* \"ERC-20/erc20.sol\":4792:4797  owner */\n      0x00\n      dup1\n      sload\n      swap1\n      0x0100\n      exp\n      swap1\n      div\n      0xffffffffffffffffffffffffffffffffffffffff\n      and\n        /* \"ERC-20/erc20.sol\":4771:4808  OwnershipTransferred(owner, newOwner) */\n      0xffffffffffffffffffffffffffffffffffffffff\n      and\n      0x8be0079c531659141344cd1fd0a4f28419497f9722a3daafe3b4186f6b6457e0\n      mload(0x40)\n      mload(0x40)\n      dup1\n      swap2\n      sub\n      swap1\n      log3\n        /* \"ERC-20/erc20.sol\":4827:4835  newOwner */\n      0x01\n      0x00\n      swap1\n      sload\n      swap1\n      0x0100\n      exp\n      swap1\n      div\n      0xffffffffffffffffffffffffffffffffffffffff\n      and\n        /* \"ERC-20/erc20.sol\":4819:4824  owner */\n      0x00\n      dup1\n        /* \"ERC-20/erc20.sol\":4819:4835  owner = newOwner */\n      0x0100\n      exp\n      dup2\n      sload\n      dup2\n      0xffffffffffffffffffffffffffffffffffffffff\n      mul\n      not\n      and\n      swap1\n      dup4\n      0xffffffffffffffffffffffffffffffffffffffff\n      and\n      mul\n      or\n      swap1\n      sstore\n      pop\n        /* \"ERC-20/erc20.sol\":4865:4866  0 */\n      0x00\n        /* \"ERC-20/erc20.sol\":4846:4854  newOwner */\n      0x01\n      0x00\n        /* \"ERC-20/erc20.sol\":4846:4867  newOwner = address(0) */\n      0x0100\n      exp\n      dup2\n      sload\n      dup2\n      0xffffffffffffffffffffffffffffffffffffffff\n      mul\n      not\n      and\n      swap1\n      dup4\n      0xffffffffffffffffffffffffffffffffffffffff\n      and\n      mul\n      or\n      swap1\n      sstore\n      pop\n        /* \"ERC-20/erc20.sol\":4679:4875  function acceptOwnership() public {\r... */\n      jump\t// out\n        /* \"ERC-20/erc20.sol\":8027:8258  function _mintToken(uint256 _value)  public  returns (bool success) {\r... */\n    tag_64:\n        /* \"ERC-20/erc20.sol\":8081:8093  bool success */\n      0x00\n        /* \"ERC-20/erc20.sol\":8128:8133  owner */\n      dup1\n      0x00\n      swap1\n      sload\n      swap1\n      0x0100\n      exp\n      swap1\n      div\n      0xffffffffffffffffffffffffffffffffffffffff\n      and\n        /* \"ERC-20/erc20.sol\":8114:8133  msg.sender == owner */\n      0xffffffffffffffffffffffffffffffffffffffff\n      and\n        /* \"ERC-20/erc20.sol\":8114:8124  msg.sender */\n      caller\n        /* \"ERC-20/erc20.sol\":8114:8133  msg.sender == owner */\n      0xffffffffffffffffffffffffffffffffffffffff\n      and\n      eq\n        /* \"ERC-20/erc20.sol\":8106:8159  require(msg.sender == owner, \"admin only has access\") */\n      tag_120\n      jumpi\n      mload(0x40)\n      0x08c379a000000000000000000000000000000000000000000000000000000000\n      dup2\n      mstore\n      0x04\n      add\n      tag_121\n      swap1\n      tag_122\n      jump\t// in\n    tag_121:\n      mload(0x40)\n      dup1\n      swap2\n      sub\n      swap1\n      revert\n    tag_120:\n        /* \"ERC-20/erc20.sol\":8186:8192  _value */\n      dup2\n        /* \"ERC-20/erc20.sol\":8170:8182  _totalSupply */\n      0x05\n      0x00\n        /* \"ERC-20/erc20.sol\":8170:8192  _totalSupply += _value */\n      dup3\n      dup3\n      sload\n      tag_123\n      swap2\n      swap1\n      tag_113\n      jump\t// in\n    tag_123:\n      swap3\n      pop\n      pop\n      dup2\n      swap1\n      sstore\n      pop\n        /* \"ERC-20/erc20.sol\":8222:8228  _value */\n      dup2\n        /* \"ERC-20/erc20.sol\":8203:8211  balances */\n      0x06\n        /* \"ERC-20/erc20.sol\":8203:8218  balances[owner] */\n      0x00\n        /* \"ERC-20/erc20.sol\":8212:8217  owner */\n      dup1\n      0x00\n      swap1\n      sload\n      swap1\n      0x0100\n      exp\n      swap1\n      div\n      0xffffffffffffffffffffffffffffffffffffffff\n      and\n        /* \"ERC-20/erc20.sol\":8203:8218  balances[owner] */\n      0xffffffffffffffffffffffffffffffffffffffff\n      and\n      0xffffffffffffffffffffffffffffffffffffffff\n      and\n      dup2\n      mstore\n      0x20\n      add\n      swap1\n      dup2\n      mstore\n      0x20\n      add\n      0x00\n      keccak256\n      0x00\n        /* \"ERC-20/erc20.sol\":8203:8228  balances[owner] += _value */\n      dup3\n      dup3\n      sload\n      tag_124\n      swap2\n      swap1\n      tag_113\n      jump\t// in\n    tag_124:\n      swap3\n      pop\n      pop\n      dup2\n      swap1\n      sstore\n      pop\n        /* \"ERC-20/erc20.sol\":8246:8250  true */\n      0x01\n        /* \"ERC-20/erc20.sol\":8239:8250  return true */\n      swap1\n      pop\n        /* \"ERC-20/erc20.sol\":8027:8258  function _mintToken(uint256 _value)  public  returns (bool success) {\r... */\n      swap2\n      swap1\n      pop\n      jump\t// out\n        /* \"ERC-20/erc20.sol\":4355:4375  address public owner */\n    tag_67:\n      0x00\n      dup1\n      sload\n      swap1\n      0x0100\n      exp\n      swap1\n      div\n      0xffffffffffffffffffffffffffffffffffffffff\n      and\n      dup2\n      jump\t// out\n        /* \"ERC-20/erc20.sol\":5516:5612  function symbol() public override view returns (string memory) {\r... */\n    tag_71:\n        /* \"ERC-20/erc20.sol\":5564:5577  string memory */\n      0x60\n        /* \"ERC-20/erc20.sol\":5597:5604  _symbol */\n      0x02\n        /* \"ERC-20/erc20.sol\":5590:5604  return _symbol */\n      dup1\n      sload\n      tag_126\n      swap1\n      tag_100\n      jump\t// in\n    tag_126:\n      dup1\n      0x1f\n      add\n      0x20\n      dup1\n      swap2\n      div\n      mul\n      0x20\n      add\n      mload(0x40)\n      swap1\n      dup2\n      add\n      0x40\n      mstore\n      dup1\n      swap3\n      swap2\n      swap1\n      dup2\n      dup2\n      mstore\n      0x20\n      add\n      dup3\n      dup1\n      sload\n      tag_127\n      swap1\n      tag_100\n      jump\t// in\n    tag_127:\n      dup1\n      iszero\n      tag_128\n      jumpi\n      dup1\n      0x1f\n      lt\n      tag_129\n      jumpi\n      0x0100\n      dup1\n      dup4\n      sload\n      div\n      mul\n      dup4\n      mstore\n      swap2\n      0x20\n      add\n      swap2\n      jump(tag_128)\n    tag_129:\n      dup3\n      add\n      swap2\n      swap1\n      0x00\n      mstore\n      keccak256(0x00, 0x20)\n      swap1\n    tag_130:\n      dup2\n      sload\n      dup2\n      mstore\n      swap1\n      0x01\n      add\n      swap1\n      0x20\n      add\n      dup1\n      dup4\n      gt\n      tag_130\n      jumpi\n      dup3\n      swap1\n      sub\n      0x1f\n      and\n      dup3\n      add\n      swap2\n    tag_128:\n      pop\n      pop\n      pop\n      pop\n      pop\n      swap1\n      pop\n        /* \"ERC-20/erc20.sol\":5516:5612  function symbol() public override view returns (string memory) {\r... */\n      swap1\n      jump\t// out\n        /* \"ERC-20/erc20.sol\":8552:8822  function _burnToken( uint256 _value) public returns(bool success) {\r... */\n    tag_75:\n        /* \"ERC-20/erc20.sol\":8604:8616  bool success */\n      0x00\n        /* \"ERC-20/erc20.sol\":8651:8656  owner */\n      dup1\n      0x00\n      swap1\n      sload\n      swap1\n      0x0100\n      exp\n      swap1\n      div\n      0xffffffffffffffffffffffffffffffffffffffff\n      and\n        /* \"ERC-20/erc20.sol\":8637:8656  msg.sender == owner */\n      0xffffffffffffffffffffffffffffffffffffffff\n      and\n        /* \"ERC-20/erc20.sol\":8637:8647  msg.sender */\n      caller\n        /* \"ERC-20/erc20.sol\":8637:8656  msg.sender == owner */\n      0xffffffffffffffffffffffffffffffffffffffff\n      and\n      eq\n        /* \"ERC-20/erc20.sol\":8629:8682  require(msg.sender == owner, \"admin only has access\") */\n      tag_132\n      jumpi\n      mload(0x40)\n      0x08c379a000000000000000000000000000000000000000000000000000000000\n      dup2\n      mstore\n      0x04\n      add\n      tag_133\n      swap1\n      tag_122\n      jump\t// in\n    tag_133:\n      mload(0x40)\n      dup1\n      swap2\n      sub\n      swap1\n      revert\n    tag_132:\n        /* \"ERC-20/erc20.sol\":8709:8715  _value */\n      dup2\n        /* \"ERC-20/erc20.sol\":8693:8705  _totalSupply */\n      0x05\n      0x00\n        /* \"ERC-20/erc20.sol\":8693:8715  _totalSupply -= _value */\n      dup3\n      dup3\n      sload\n      tag_134\n      swap2\n      swap1\n      tag_111\n      jump\t// in\n    tag_134:\n      swap3\n      pop\n      pop\n      dup2\n      swap1\n      sstore\n      pop\n        /* \"ERC-20/erc20.sol\":8746:8752  _value */\n      dup2\n        /* \"ERC-20/erc20.sol\":8726:8734  balances */\n      0x06\n        /* \"ERC-20/erc20.sol\":8726:8742  balances [owner] */\n      0x00\n        /* \"ERC-20/erc20.sol\":8736:8741  owner */\n      dup1\n      0x00\n      swap1\n      sload\n      swap1\n      0x0100\n      exp\n      swap1\n      div\n      0xffffffffffffffffffffffffffffffffffffffff\n      and\n        /* \"ERC-20/erc20.sol\":8726:8742  balances [owner] */\n      0xffffffffffffffffffffffffffffffffffffffff\n      and\n      0xffffffffffffffffffffffffffffffffffffffff\n      and\n      dup2\n      mstore\n      0x20\n      add\n      swap1\n      dup2\n      mstore\n      0x20\n      add\n      0x00\n      keccak256\n      0x00\n        /* \"ERC-20/erc20.sol\":8726:8752  balances [owner] -= _value */\n      dup3\n      dup3\n      sload\n      tag_135\n      swap2\n      swap1\n      tag_111\n      jump\t// in\n    tag_135:\n      swap3\n      pop\n      pop\n      dup2\n      swap1\n      sstore\n      pop\n        /* \"ERC-20/erc20.sol\":8773:8783  msg.sender */\n      caller\n        /* \"ERC-20/erc20.sol\":8768:8792  burn(msg.sender, _value) */\n      0xffffffffffffffffffffffffffffffffffffffff\n      and\n      0x9dc29fac0ba6d4fc521c69c2b0c636d612e3343bc39ed934429b8876b0d12cba\n        /* \"ERC-20/erc20.sol\":8785:8791  _value */\n      dup4\n        /* \"ERC-20/erc20.sol\":8768:8792  burn(msg.sender, _value) */\n      mload(0x40)\n      tag_136\n      swap2\n      swap1\n      tag_38\n      jump\t// in\n    tag_136:\n      mload(0x40)\n      dup1\n      swap2\n      sub\n      swap1\n      log2\n        /* \"ERC-20/erc20.sol\":8810:8814  true */\n      0x01\n        /* \"ERC-20/erc20.sol\":8803:8814  return true */\n      swap1\n      pop\n        /* \"ERC-20/erc20.sol\":8552:8822  function _burnToken( uint256 _value) public returns(bool success) {\r... */\n      swap2\n      swap1\n      pop\n      jump\t// out\n        /* \"ERC-20/erc20.sol\":6933:7082  function transfer(address _to, uint256 _value) public override returns (bool success) {\r... */\n    tag_79:\n        /* \"ERC-20/erc20.sol\":7005:7017  bool success */\n      0x00\n        /* \"ERC-20/erc20.sol\":7037:7074  transferFrom(msg.sender, _to, _value) */\n      tag_138\n        /* \"ERC-20/erc20.sol\":7050:7060  msg.sender */\n      caller\n        /* \"ERC-20/erc20.sol\":7062:7065  _to */\n      dup5\n        /* \"ERC-20/erc20.sol\":7067:7073  _value */\n      dup5\n        /* \"ERC-20/erc20.sol\":7037:7049  transferFrom */\n      tag_42\n        /* \"ERC-20/erc20.sol\":7037:7074  transferFrom(msg.sender, _to, _value) */\n      jump\t// in\n    tag_138:\n        /* \"ERC-20/erc20.sol\":7030:7074  return transferFrom(msg.sender, _to, _value) */\n      swap1\n      pop\n        /* \"ERC-20/erc20.sol\":6933:7082  function transfer(address _to, uint256 _value) public override returns (bool success) {\r... */\n      swap3\n      swap2\n      pop\n      pop\n      jump\t// out\n        /* \"ERC-20/erc20.sol\":4930:4951  string public _symbol */\n    tag_82:\n      0x02\n      dup1\n      sload\n      tag_139\n      swap1\n      tag_100\n      jump\t// in\n    tag_139:\n      dup1\n      0x1f\n      add\n      0x20\n      dup1\n      swap2\n      div\n      mul\n      0x20\n      add\n      mload(0x40)\n      swap1\n      dup2\n      add\n      0x40\n      mstore\n      dup1\n      swap3\n      swap2\n      swap1\n      dup2\n      dup2\n      mstore\n      0x20\n      add\n      dup3\n      dup1\n      sload\n      tag_140\n      swap1\n      tag_100\n      jump\t// in\n    tag_140:\n      dup1\n      iszero\n      tag_141\n      jumpi\n      dup1\n      0x1f\n      lt\n      tag_142\n      jumpi\n      0x0100\n      dup1\n      dup4\n      sload\n      div\n      mul\n      dup4\n      mstore\n      swap2\n      0x20\n      add\n      swap2\n      jump(tag_141)\n    tag_142:\n      dup3\n      add\n      swap2\n      swap1\n      0x00\n      mstore\n      keccak256(0x00, 0x20)\n      swap1\n    tag_143:\n      dup2\n      sload\n      dup2\n      mstore\n      swap1\n      0x01\n      add\n      swap1\n      0x20\n      add\n      dup1\n      dup4\n      gt\n      tag_143\n      jumpi\n      dup3\n      swap1\n      sub\n      0x1f\n      and\n      dup3\n      add\n      swap2\n    tag_141:\n      pop\n      pop\n      pop\n      pop\n      pop\n      dup2\n      jump\t// out\n        /* \"ERC-20/erc20.sol\":4958:4977  string public _name */\n    tag_85:\n      0x03\n      dup1\n      sload\n      tag_144\n      swap1\n      tag_100\n      jump\t// in\n    tag_144:\n      dup1\n      0x1f\n      add\n      0x20\n      dup1\n      swap2\n      div\n      mul\n      0x20\n      add\n      mload(0x40)\n      swap1\n      dup2\n      add\n      0x40\n      mstore\n      dup1\n      swap3\n      swap2\n      swap1\n      dup2\n      dup2\n      mstore\n      0x20\n      add\n      dup3\n      dup1\n      sload\n      tag_145\n      swap1\n      tag_100\n      jump\t// in\n    tag_145:\n      dup1\n      iszero\n      tag_146\n      jumpi\n      dup1\n      0x1f\n      lt\n      tag_147\n      jumpi\n      0x0100\n      dup1\n      dup4\n      sload\n      div\n      mul\n      dup4\n      mstore\n      swap2\n      0x20\n      add\n      swap2\n      jump(tag_146)\n    tag_147:\n      dup3\n      add\n      swap2\n      swap1\n      0x00\n      mstore\n      keccak256(0x00, 0x20)\n      swap1\n    tag_148:\n      dup2\n      sload\n      dup2\n      mstore\n      swap1\n      0x01\n      add\n      swap1\n      0x20\n      add\n      dup1\n      dup4\n      gt\n      tag_148\n      jumpi\n      dup3\n      swap1\n      sub\n      0x1f\n      and\n      dup3\n      add\n      swap2\n    tag_146:\n      pop\n      pop\n      pop\n      pop\n      pop\n      dup2\n      jump\t// out\n        /* \"ERC-20/erc20.sol\":4382:4405  address public newOwner */\n    tag_88:\n      0x01\n      0x00\n      swap1\n      sload\n      swap1\n      0x0100\n      exp\n      swap1\n      div\n      0xffffffffffffffffffffffffffffffffffffffff\n      and\n      dup2\n      jump\t// out\n        /* \"ERC-20/erc20.sol\":7688:7841  function allowance(address _owner, address _spender) public override view returns (uint256 remaining) {\r... */\n    tag_93:\n        /* \"ERC-20/erc20.sol\":7771:7788  uint256 remaining */\n      0x00\n        /* \"ERC-20/erc20.sol\":7808:7815  allowed */\n      0x07\n        /* \"ERC-20/erc20.sol\":7808:7823  allowed[_owner] */\n      0x00\n        /* \"ERC-20/erc20.sol\":7816:7822  _owner */\n      dup5\n        /* \"ERC-20/erc20.sol\":7808:7823  allowed[_owner] */\n      0xffffffffffffffffffffffffffffffffffffffff\n      and\n      0xffffffffffffffffffffffffffffffffffffffff\n      and\n      dup2\n      mstore\n      0x20\n      add\n      swap1\n      dup2\n      mstore\n      0x20\n      add\n      0x00\n      keccak256\n        /* \"ERC-20/erc20.sol\":7808:7833  allowed[_owner][_spender] */\n      0x00\n        /* \"ERC-20/erc20.sol\":7824:7832  _spender */\n      dup4\n        /* \"ERC-20/erc20.sol\":7808:7833  allowed[_owner][_spender] */\n      0xffffffffffffffffffffffffffffffffffffffff\n      and\n      0xffffffffffffffffffffffffffffffffffffffff\n      and\n      dup2\n      mstore\n      0x20\n      add\n      swap1\n      dup2\n      mstore\n      0x20\n      add\n      0x00\n      keccak256\n      sload\n        /* \"ERC-20/erc20.sol\":7801:7833  return allowed[_owner][_spender] */\n      swap1\n      pop\n        /* \"ERC-20/erc20.sol\":7688:7841  function allowance(address _owner, address _spender) public override view returns (uint256 remaining) {\r... */\n      swap3\n      swap2\n      pop\n      pop\n      jump\t// out\n        /* \"ERC-20/erc20.sol\":4552:4671  function transferOwnership(address _to) public {\r... */\n    tag_97:\n        /* \"ERC-20/erc20.sol\":4632:4637  owner */\n      0x00\n      dup1\n      sload\n      swap1\n      0x0100\n      exp\n      swap1\n      div\n      0xffffffffffffffffffffffffffffffffffffffff\n      and\n        /* \"ERC-20/erc20.sol\":4618:4637  msg.sender == owner */\n      0xffffffffffffffffffffffffffffffffffffffff\n      and\n        /* \"ERC-20/erc20.sol\":4618:4628  msg.sender */\n      caller\n        /* \"ERC-20/erc20.sol\":4618:4637  msg.sender == owner */\n      0xffffffffffffffffffffffffffffffffffffffff\n      and\n      eq\n        /* \"ERC-20/erc20.sol\":4610:4638  require(msg.sender == owner) */\n      tag_151\n      jumpi\n      0x00\n      dup1\n      revert\n    tag_151:\n        /* \"ERC-20/erc20.sol\":4660:4663  _to */\n      dup1\n        /* \"ERC-20/erc20.sol\":4649:4657  newOwner */\n      0x01\n      0x00\n        /* \"ERC-20/erc20.sol\":4649:4663  newOwner = _to */\n      0x0100\n      exp\n      dup2\n      sload\n      dup2\n      0xffffffffffffffffffffffffffffffffffffffff\n      mul\n      not\n      and\n      swap1\n      dup4\n      0xffffffffffffffffffffffffffffffffffffffff\n      and\n      mul\n      or\n      swap1\n      sstore\n      pop\n        /* \"ERC-20/erc20.sol\":4552:4671  function transferOwnership(address _to) public {\r... */\n      pop\n      jump\t// out\n        /* \"#utility.yul\":7:146   */\n    tag_153:\n        /* \"#utility.yul\":53:58   */\n      0x00\n        /* \"#utility.yul\":91:97   */\n      dup2\n        /* \"#utility.yul\":78:98   */\n      calldataload\n        /* \"#utility.yul\":69:98   */\n      swap1\n      pop\n        /* \"#utility.yul\":107:140   */\n      tag_155\n        /* \"#utility.yul\":134:139   */\n      dup2\n        /* \"#utility.yul\":107:140   */\n      tag_156\n      jump\t// in\n    tag_155:\n        /* \"#utility.yul\":7:146   */\n      swap3\n      swap2\n      pop\n      pop\n      jump\t// out\n        /* \"#utility.yul\":152:291   */\n    tag_157:\n        /* \"#utility.yul\":198:203   */\n      0x00\n        /* \"#utility.yul\":236:242   */\n      dup2\n        /* \"#utility.yul\":223:243   */\n      calldataload\n        /* \"#utility.yul\":214:243   */\n      swap1\n      pop\n        /* \"#utility.yul\":252:285   */\n      tag_159\n        /* \"#utility.yul\":279:284   */\n      dup2\n        /* \"#utility.yul\":252:285   */\n      tag_160\n      jump\t// in\n    tag_159:\n        /* \"#utility.yul\":152:291   */\n      swap3\n      swap2\n      pop\n      pop\n      jump\t// out\n        /* \"#utility.yul\":297:626   */\n    tag_56:\n        /* \"#utility.yul\":356:362   */\n      0x00\n        /* \"#utility.yul\":405:407   */\n      0x20\n        /* \"#utility.yul\":393:402   */\n      dup3\n        /* \"#utility.yul\":384:391   */\n      dup5\n        /* \"#utility.yul\":380:403   */\n      sub\n        /* \"#utility.yul\":376:408   */\n      slt\n        /* \"#utility.yul\":373:492   */\n      iszero\n      tag_162\n      jumpi\n        /* \"#utility.yul\":411:490   */\n      tag_163\n      tag_164\n      jump\t// in\n    tag_163:\n        /* \"#utility.yul\":373:492   */\n    tag_162:\n        /* \"#utility.yul\":531:532   */\n      0x00\n        /* \"#utility.yul\":556:609   */\n      tag_165\n        /* \"#utility.yul\":601:608   */\n      dup5\n        /* \"#utility.yul\":592:598   */\n      dup3\n        /* \"#utility.yul\":581:590   */\n      dup6\n        /* \"#utility.yul\":577:599   */\n      add\n        /* \"#utility.yul\":556:609   */\n      tag_153\n      jump\t// in\n    tag_165:\n        /* \"#utility.yul\":546:609   */\n      swap2\n      pop\n        /* \"#utility.yul\":502:619   */\n      pop\n        /* \"#utility.yul\":297:626   */\n      swap3\n      swap2\n      pop\n      pop\n      jump\t// out\n        /* \"#utility.yul\":632:1106   */\n    tag_92:\n        /* \"#utility.yul\":700:706   */\n      0x00\n        /* \"#utility.yul\":708:714   */\n      dup1\n        /* \"#utility.yul\":757:759   */\n      0x40\n        /* \"#utility.yul\":745:754   */\n      dup4\n        /* \"#utility.yul\":736:743   */\n      dup6\n        /* \"#utility.yul\":732:755   */\n      sub\n        /* \"#utility.yul\":728:760   */\n      slt\n        /* \"#utility.yul\":725:844   */\n      iszero\n      tag_167\n      jumpi\n        /* \"#utility.yul\":763:842   */\n      tag_168\n      tag_164\n      jump\t// in\n    tag_168:\n        /* \"#utility.yul\":725:844   */\n    tag_167:\n        /* \"#utility.yul\":883:884   */\n      0x00\n        /* \"#utility.yul\":908:961   */\n      tag_169\n        /* \"#utility.yul\":953:960   */\n      dup6\n        /* \"#utility.yul\":944:950   */\n      dup3\n        /* \"#utility.yul\":933:942   */\n      dup7\n        /* \"#utility.yul\":929:951   */\n      add\n        /* \"#utility.yul\":908:961   */\n      tag_153\n      jump\t// in\n    tag_169:\n        /* \"#utility.yul\":898:961   */\n      swap3\n      pop\n        /* \"#utility.yul\":854:971   */\n      pop\n        /* \"#utility.yul\":1010:1012   */\n      0x20\n        /* \"#utility.yul\":1036:1089   */\n      tag_170\n        /* \"#utility.yul\":1081:1088   */\n      dup6\n        /* \"#utility.yul\":1072:1078   */\n      dup3\n        /* \"#utility.yul\":1061:1070   */\n      dup7\n        /* \"#utility.yul\":1057:1079   */\n      add\n        /* \"#utility.yul\":1036:1089   */\n      tag_153\n      jump\t// in\n    tag_170:\n        /* \"#utility.yul\":1026:1089   */\n      swap2\n      pop\n        /* \"#utility.yul\":981:1099   */\n      pop\n        /* \"#utility.yul\":632:1106   */\n      swap3\n      pop\n      swap3\n      swap1\n      pop\n      jump\t// out\n        /* \"#utility.yul\":1112:1731   */\n    tag_41:\n        /* \"#utility.yul\":1189:1195   */\n      0x00\n        /* \"#utility.yul\":1197:1203   */\n      dup1\n        /* \"#utility.yul\":1205:1211   */\n      0x00\n        /* \"#utility.yul\":1254:1256   */\n      0x60\n        /* \"#utility.yul\":1242:1251   */\n      dup5\n        /* \"#utility.yul\":1233:1240   */\n      dup7\n        /* \"#utility.yul\":1229:1252   */\n      sub\n        /* \"#utility.yul\":1225:1257   */\n      slt\n        /* \"#utility.yul\":1222:1341   */\n      iszero\n      tag_172\n      jumpi\n        /* \"#utility.yul\":1260:1339   */\n      tag_173\n      tag_164\n      jump\t// in\n    tag_173:\n        /* \"#utility.yul\":1222:1341   */\n    tag_172:\n        /* \"#utility.yul\":1380:1381   */\n      0x00\n        /* \"#utility.yul\":1405:1458   */\n      tag_174\n        /* \"#utility.yul\":1450:1457   */\n      dup7\n        /* \"#utility.yul\":1441:1447   */\n      dup3\n        /* \"#utility.yul\":1430:1439   */\n      dup8\n        /* \"#utility.yul\":1426:1448   */\n      add\n        /* \"#utility.yul\":1405:1458   */\n      tag_153\n      jump\t// in\n    tag_174:\n        /* \"#utility.yul\":1395:1458   */\n      swap4\n      pop\n        /* \"#utility.yul\":1351:1468   */\n      pop\n        /* \"#utility.yul\":1507:1509   */\n      0x20\n        /* \"#utility.yul\":1533:1586   */\n      tag_175\n        /* \"#utility.yul\":1578:1585   */\n      dup7\n        /* \"#utility.yul\":1569:1575   */\n      dup3\n        /* \"#utility.yul\":1558:1567   */\n      dup8\n        /* \"#utility.yul\":1554:1576   */\n      add\n        /* \"#utility.yul\":1533:1586   */\n      tag_153\n      jump\t// in\n    tag_175:\n        /* \"#utility.yul\":1523:1586   */\n      swap3\n      pop\n        /* \"#utility.yul\":1478:1596   */\n      pop\n        /* \"#utility.yul\":1635:1637   */\n      0x40\n        /* \"#utility.yul\":1661:1714   */\n      tag_176\n        /* \"#utility.yul\":1706:1713   */\n      dup7\n        /* \"#utility.yul\":1697:1703   */\n      dup3\n        /* \"#utility.yul\":1686:1695   */\n      dup8\n        /* \"#utility.yul\":1682:1704   */\n      add\n        /* \"#utility.yul\":1661:1714   */\n      tag_157\n      jump\t// in\n    tag_176:\n        /* \"#utility.yul\":1651:1714   */\n      swap2\n      pop\n        /* \"#utility.yul\":1606:1724   */\n      pop\n        /* \"#utility.yul\":1112:1731   */\n      swap3\n      pop\n      swap3\n      pop\n      swap3\n      jump\t// out\n        /* \"#utility.yul\":1737:2211   */\n    tag_31:\n        /* \"#utility.yul\":1805:1811   */\n      0x00\n        /* \"#utility.yul\":1813:1819   */\n      dup1\n        /* \"#utility.yul\":1862:1864   */\n      0x40\n        /* \"#utility.yul\":1850:1859   */\n      dup4\n        /* \"#utility.yul\":1841:1848   */\n      dup6\n        /* \"#utility.yul\":1837:1860   */\n      sub\n        /* \"#utility.yul\":1833:1865   */\n      slt\n        /* \"#utility.yul\":1830:1949   */\n      iszero\n      tag_178\n      jumpi\n        /* \"#utility.yul\":1868:1947   */\n      tag_179\n      tag_164\n      jump\t// in\n    tag_179:\n        /* \"#utility.yul\":1830:1949   */\n    tag_178:\n        /* \"#utility.yul\":1988:1989   */\n      0x00\n        /* \"#utility.yul\":2013:2066   */\n      tag_180\n        /* \"#utility.yul\":2058:2065   */\n      dup6\n        /* \"#utility.yul\":2049:2055   */\n      dup3\n        /* \"#utility.yul\":2038:2047   */\n      dup7\n        /* \"#utility.yul\":2034:2056   */\n      add\n        /* \"#utility.yul\":2013:2066   */\n      tag_153\n      jump\t// in\n    tag_180:\n        /* \"#utility.yul\":2003:2066   */\n      swap3\n      pop\n        /* \"#utility.yul\":1959:2076   */\n      pop\n        /* \"#utility.yul\":2115:2117   */\n      0x20\n        /* \"#utility.yul\":2141:2194   */\n      tag_181\n        /* \"#utility.yul\":2186:2193   */\n      dup6\n        /* \"#utility.yul\":2177:2183   */\n      dup3\n        /* \"#utility.yul\":2166:2175   */\n      dup7\n        /* \"#utility.yul\":2162:2184   */\n      add\n        /* \"#utility.yul\":2141:2194   */\n      tag_157\n      jump\t// in\n    tag_181:\n        /* \"#utility.yul\":2131:2194   */\n      swap2\n      pop\n        /* \"#utility.yul\":2086:2204   */\n      pop\n        /* \"#utility.yul\":1737:2211   */\n      swap3\n      pop\n      swap3\n      swap1\n      pop\n      jump\t// out\n        /* \"#utility.yul\":2217:2546   */\n    tag_63:\n        /* \"#utility.yul\":2276:2282   */\n      0x00\n        /* \"#utility.yul\":2325:2327   */\n      0x20\n        /* \"#utility.yul\":2313:2322   */\n      dup3\n        /* \"#utility.yul\":2304:2311   */\n      dup5\n        /* \"#utility.yul\":2300:2323   */\n      sub\n        /* \"#utility.yul\":2296:2328   */\n      slt\n        /* \"#utility.yul\":2293:2412   */\n      iszero\n      tag_183\n      jumpi\n        /* \"#utility.yul\":2331:2410   */\n      tag_184\n      tag_164\n      jump\t// in\n    tag_184:\n        /* \"#utility.yul\":2293:2412   */\n    tag_183:\n        /* \"#utility.yul\":2451:2452   */\n      0x00\n        /* \"#utility.yul\":2476:2529   */\n      tag_185\n        /* \"#utility.yul\":2521:2528   */\n      dup5\n        /* \"#utility.yul\":2512:2518   */\n      dup3\n        /* \"#utility.yul\":2501:2510   */\n      dup6\n        /* \"#utility.yul\":2497:2519   */\n      add\n        /* \"#utility.yul\":2476:2529   */\n      tag_157\n      jump\t// in\n    tag_185:\n        /* \"#utility.yul\":2466:2529   */\n      swap2\n      pop\n        /* \"#utility.yul\":2422:2539   */\n      pop\n        /* \"#utility.yul\":2217:2546   */\n      swap3\n      swap2\n      pop\n      pop\n      jump\t// out\n        /* \"#utility.yul\":2552:2670   */\n    tag_186:\n        /* \"#utility.yul\":2639:2663   */\n      tag_188\n        /* \"#utility.yul\":2657:2662   */\n      dup2\n        /* \"#utility.yul\":2639:2663   */\n      tag_189\n      jump\t// in\n    tag_188:\n        /* \"#utility.yul\":2634:2637   */\n      dup3\n        /* \"#utility.yul\":2627:2664   */\n      mstore\n        /* \"#utility.yul\":2552:2670   */\n      pop\n      pop\n      jump\t// out\n        /* \"#utility.yul\":2676:2785   */\n    tag_190:\n        /* \"#utility.yul\":2757:2778   */\n      tag_192\n        /* \"#utility.yul\":2772:2777   */\n      dup2\n        /* \"#utility.yul\":2757:2778   */\n      tag_193\n      jump\t// in\n    tag_192:\n        /* \"#utility.yul\":2752:2755   */\n      dup3\n        /* \"#utility.yul\":2745:2779   */\n      mstore\n        /* \"#utility.yul\":2676:2785   */\n      pop\n      pop\n      jump\t// out\n        /* \"#utility.yul\":2791:3155   */\n    tag_194:\n        /* \"#utility.yul\":2879:2882   */\n      0x00\n        /* \"#utility.yul\":2907:2946   */\n      tag_196\n        /* \"#utility.yul\":2940:2945   */\n      dup3\n        /* \"#utility.yul\":2907:2946   */\n      tag_197\n      jump\t// in\n    tag_196:\n        /* \"#utility.yul\":2962:3033   */\n      tag_198\n        /* \"#utility.yul\":3026:3032   */\n      dup2\n        /* \"#utility.yul\":3021:3024   */\n      dup6\n        /* \"#utility.yul\":2962:3033   */\n      tag_199\n      jump\t// in\n    tag_198:\n        /* \"#utility.yul\":2955:3033   */\n      swap4\n      pop\n        /* \"#utility.yul\":3042:3094   */\n      tag_200\n        /* \"#utility.yul\":3087:3093   */\n      dup2\n        /* \"#utility.yul\":3082:3085   */\n      dup6\n        /* \"#utility.yul\":3075:3079   */\n      0x20\n        /* \"#utility.yul\":3068:3073   */\n      dup7\n        /* \"#utility.yul\":3064:3080   */\n      add\n        /* \"#utility.yul\":3042:3094   */\n      tag_201\n      jump\t// in\n    tag_200:\n        /* \"#utility.yul\":3119:3148   */\n      tag_202\n        /* \"#utility.yul\":3141:3147   */\n      dup2\n        /* \"#utility.yul\":3119:3148   */\n      tag_203\n      jump\t// in\n    tag_202:\n        /* \"#utility.yul\":3114:3117   */\n      dup5\n        /* \"#utility.yul\":3110:3149   */\n      add\n        /* \"#utility.yul\":3103:3149   */\n      swap2\n      pop\n        /* \"#utility.yul\":2883:3155   */\n      pop\n        /* \"#utility.yul\":2791:3155   */\n      swap3\n      swap2\n      pop\n      pop\n      jump\t// out\n        /* \"#utility.yul\":3161:3527   */\n    tag_204:\n        /* \"#utility.yul\":3303:3306   */\n      0x00\n        /* \"#utility.yul\":3324:3391   */\n      tag_206\n        /* \"#utility.yul\":3388:3390   */\n      0x15\n        /* \"#utility.yul\":3383:3386   */\n      dup4\n        /* \"#utility.yul\":3324:3391   */\n      tag_199\n      jump\t// in\n    tag_206:\n        /* \"#utility.yul\":3317:3391   */\n      swap2\n      pop\n        /* \"#utility.yul\":3400:3493   */\n      tag_207\n        /* \"#utility.yul\":3489:3492   */\n      dup3\n        /* \"#utility.yul\":3400:3493   */\n      tag_208\n      jump\t// in\n    tag_207:\n        /* \"#utility.yul\":3518:3520   */\n      0x20\n        /* \"#utility.yul\":3513:3516   */\n      dup3\n        /* \"#utility.yul\":3509:3521   */\n      add\n        /* \"#utility.yul\":3502:3521   */\n      swap1\n      pop\n        /* \"#utility.yul\":3161:3527   */\n      swap2\n      swap1\n      pop\n      jump\t// out\n        /* \"#utility.yul\":3533:3651   */\n    tag_209:\n        /* \"#utility.yul\":3620:3644   */\n      tag_211\n        /* \"#utility.yul\":3638:3643   */\n      dup2\n        /* \"#utility.yul\":3620:3644   */\n      tag_212\n      jump\t// in\n    tag_211:\n        /* \"#utility.yul\":3615:3618   */\n      dup3\n        /* \"#utility.yul\":3608:3645   */\n      mstore\n        /* \"#utility.yul\":3533:3651   */\n      pop\n      pop\n      jump\t// out\n        /* \"#utility.yul\":3657:3769   */\n    tag_213:\n        /* \"#utility.yul\":3740:3762   */\n      tag_215\n        /* \"#utility.yul\":3756:3761   */\n      dup2\n        /* \"#utility.yul\":3740:3762   */\n      tag_216\n      jump\t// in\n    tag_215:\n        /* \"#utility.yul\":3735:3738   */\n      dup3\n        /* \"#utility.yul\":3728:3763   */\n      mstore\n        /* \"#utility.yul\":3657:3769   */\n      pop\n      pop\n      jump\t// out\n        /* \"#utility.yul\":3775:3997   */\n    tag_69:\n        /* \"#utility.yul\":3868:3872   */\n      0x00\n        /* \"#utility.yul\":3906:3908   */\n      0x20\n        /* \"#utility.yul\":3895:3904   */\n      dup3\n        /* \"#utility.yul\":3891:3909   */\n      add\n        /* \"#utility.yul\":3883:3909   */\n      swap1\n      pop\n        /* \"#utility.yul\":3919:3990   */\n      tag_218\n        /* \"#utility.yul\":3987:3988   */\n      0x00\n        /* \"#utility.yul\":3976:3985   */\n      dup4\n        /* \"#utility.yul\":3972:3989   */\n      add\n        /* \"#utility.yul\":3963:3969   */\n      dup5\n        /* \"#utility.yul\":3919:3990   */\n      tag_186\n      jump\t// in\n    tag_218:\n        /* \"#utility.yul\":3775:3997   */\n      swap3\n      swap2\n      pop\n      pop\n      jump\t// out\n        /* \"#utility.yul\":4003:4213   */\n    tag_34:\n        /* \"#utility.yul\":4090:4094   */\n      0x00\n        /* \"#utility.yul\":4128:4130   */\n      0x20\n        /* \"#utility.yul\":4117:4126   */\n      dup3\n        /* \"#utility.yul\":4113:4131   */\n      add\n        /* \"#utility.yul\":4105:4131   */\n      swap1\n      pop\n        /* \"#utility.yul\":4141:4206   */\n      tag_220\n        /* \"#utility.yul\":4203:4204   */\n      0x00\n        /* \"#utility.yul\":4192:4201   */\n      dup4\n        /* \"#utility.yul\":4188:4205   */\n      add\n        /* \"#utility.yul\":4179:4185   */\n      dup5\n        /* \"#utility.yul\":4141:4206   */\n      tag_190\n      jump\t// in\n    tag_220:\n        /* \"#utility.yul\":4003:4213   */\n      swap3\n      swap2\n      pop\n      pop\n      jump\t// out\n        /* \"#utility.yul\":4219:4532   */\n    tag_28:\n        /* \"#utility.yul\":4332:4336   */\n      0x00\n        /* \"#utility.yul\":4370:4372   */\n      0x20\n        /* \"#utility.yul\":4359:4368   */\n      dup3\n        /* \"#utility.yul\":4355:4373   */\n      add\n        /* \"#utility.yul\":4347:4373   */\n      swap1\n      pop\n        /* \"#utility.yul\":4419:4428   */\n      dup2\n        /* \"#utility.yul\":4413:4417   */\n      dup2\n        /* \"#utility.yul\":4409:4429   */\n      sub\n        /* \"#utility.yul\":4405:4406   */\n      0x00\n        /* \"#utility.yul\":4394:4403   */\n      dup4\n        /* \"#utility.yul\":4390:4407   */\n      add\n        /* \"#utility.yul\":4383:4430   */\n      mstore\n        /* \"#utility.yul\":4447:4525   */\n      tag_222\n        /* \"#utility.yul\":4520:4524   */\n      dup2\n        /* \"#utility.yul\":4511:4517   */\n      dup5\n        /* \"#utility.yul\":4447:4525   */\n      tag_194\n      jump\t// in\n    tag_222:\n        /* \"#utility.yul\":4439:4525   */\n      swap1\n      pop\n        /* \"#utility.yul\":4219:4532   */\n      swap3\n      swap2\n      pop\n      pop\n      jump\t// out\n        /* \"#utility.yul\":4538:4957   */\n    tag_122:\n        /* \"#utility.yul\":4704:4708   */\n      0x00\n        /* \"#utility.yul\":4742:4744   */\n      0x20\n        /* \"#utility.yul\":4731:4740   */\n      dup3\n        /* \"#utility.yul\":4727:4745   */\n      add\n        /* \"#utility.yul\":4719:4745   */\n      swap1\n      pop\n        /* \"#utility.yul\":4791:4800   */\n      dup2\n        /* \"#utility.yul\":4785:4789   */\n      dup2\n        /* \"#utility.yul\":4781:4801   */\n      sub\n        /* \"#utility.yul\":4777:4778   */\n      0x00\n        /* \"#utility.yul\":4766:4775   */\n      dup4\n        /* \"#utility.yul\":4762:4779   */\n      add\n        /* \"#utility.yul\":4755:4802   */\n      mstore\n        /* \"#utility.yul\":4819:4950   */\n      tag_224\n        /* \"#utility.yul\":4945:4949   */\n      dup2\n        /* \"#utility.yul\":4819:4950   */\n      tag_204\n      jump\t// in\n    tag_224:\n        /* \"#utility.yul\":4811:4950   */\n      swap1\n      pop\n        /* \"#utility.yul\":4538:4957   */\n      swap2\n      swap1\n      pop\n      jump\t// out\n        /* \"#utility.yul\":4963:5185   */\n    tag_38:\n        /* \"#utility.yul\":5056:5060   */\n      0x00\n        /* \"#utility.yul\":5094:5096   */\n      0x20\n        /* \"#utility.yul\":5083:5092   */\n      dup3\n        /* \"#utility.yul\":5079:5097   */\n      add\n        /* \"#utility.yul\":5071:5097   */\n      swap1\n      pop\n        /* \"#utility.yul\":5107:5178   */\n      tag_226\n        /* \"#utility.yul\":5175:5176   */\n      0x00\n        /* \"#utility.yul\":5164:5173   */\n      dup4\n        /* \"#utility.yul\":5160:5177   */\n      add\n        /* \"#utility.yul\":5151:5157   */\n      dup5\n        /* \"#utility.yul\":5107:5178   */\n      tag_209\n      jump\t// in\n    tag_226:\n        /* \"#utility.yul\":4963:5185   */\n      swap3\n      swap2\n      pop\n      pop\n      jump\t// out\n        /* \"#utility.yul\":5191:5405   */\n    tag_47:\n        /* \"#utility.yul\":5280:5284   */\n      0x00\n        /* \"#utility.yul\":5318:5320   */\n      0x20\n        /* \"#utility.yul\":5307:5316   */\n      dup3\n        /* \"#utility.yul\":5303:5321   */\n      add\n        /* \"#utility.yul\":5295:5321   */\n      swap1\n      pop\n        /* \"#utility.yul\":5331:5398   */\n      tag_228\n        /* \"#utility.yul\":5395:5396   */\n      0x00\n        /* \"#utility.yul\":5384:5393   */\n      dup4\n        /* \"#utility.yul\":5380:5397   */\n      add\n        /* \"#utility.yul\":5371:5377   */\n      dup5\n        /* \"#utility.yul\":5331:5398   */\n      tag_213\n      jump\t// in\n    tag_228:\n        /* \"#utility.yul\":5191:5405   */\n      swap3\n      swap2\n      pop\n      pop\n      jump\t// out\n        /* \"#utility.yul\":5492:5591   */\n    tag_197:\n        /* \"#utility.yul\":5544:5550   */\n      0x00\n        /* \"#utility.yul\":5578:5583   */\n      dup2\n        /* \"#utility.yul\":5572:5584   */\n      mload\n        /* \"#utility.yul\":5562:5584   */\n      swap1\n      pop\n        /* \"#utility.yul\":5492:5591   */\n      swap2\n      swap1\n      pop\n      jump\t// out\n        /* \"#utility.yul\":5597:5766   */\n    tag_199:\n        /* \"#utility.yul\":5681:5692   */\n      0x00\n        /* \"#utility.yul\":5715:5721   */\n      dup3\n        /* \"#utility.yul\":5710:5713   */\n      dup3\n        /* \"#utility.yul\":5703:5722   */\n      mstore\n        /* \"#utility.yul\":5755:5759   */\n      0x20\n        /* \"#utility.yul\":5750:5753   */\n      dup3\n        /* \"#utility.yul\":5746:5760   */\n      add\n        /* \"#utility.yul\":5731:5760   */\n      swap1\n      pop\n        /* \"#utility.yul\":5597:5766   */\n      swap3\n      swap2\n      pop\n      pop\n      jump\t// out\n        /* \"#utility.yul\":5772:6077   */\n    tag_113:\n        /* \"#utility.yul\":5812:5815   */\n      0x00\n        /* \"#utility.yul\":5831:5851   */\n      tag_234\n        /* \"#utility.yul\":5849:5850   */\n      dup3\n        /* \"#utility.yul\":5831:5851   */\n      tag_212\n      jump\t// in\n    tag_234:\n        /* \"#utility.yul\":5826:5851   */\n      swap2\n      pop\n        /* \"#utility.yul\":5865:5885   */\n      tag_235\n        /* \"#utility.yul\":5883:5884   */\n      dup4\n        /* \"#utility.yul\":5865:5885   */\n      tag_212\n      jump\t// in\n    tag_235:\n        /* \"#utility.yul\":5860:5885   */\n      swap3\n      pop\n        /* \"#utility.yul\":6019:6020   */\n      dup3\n        /* \"#utility.yul\":5951:6017   */\n      0xffffffffffffffffffffffffffffffffffffffffffffffffffffffffffffffff\n        /* \"#utility.yul\":5947:6021   */\n      sub\n        /* \"#utility.yul\":5944:5945   */\n      dup3\n        /* \"#utility.yul\":5941:6022   */\n      gt\n        /* \"#utility.yul\":5938:6045   */\n      iszero\n      tag_236\n      jumpi\n        /* \"#utility.yul\":6025:6043   */\n      tag_237\n      tag_238\n      jump\t// in\n    tag_237:\n        /* \"#utility.yul\":5938:6045   */\n    tag_236:\n        /* \"#utility.yul\":6069:6070   */\n      dup3\n        /* \"#utility.yul\":6066:6067   */\n      dup3\n        /* \"#utility.yul\":6062:6071   */\n      add\n        /* \"#utility.yul\":6055:6071   */\n      swap1\n      pop\n        /* \"#utility.yul\":5772:6077   */\n      swap3\n      swap2\n      pop\n      pop\n      jump\t// out\n        /* \"#utility.yul\":6083:6274   */\n    tag_111:\n        /* \"#utility.yul\":6123:6127   */\n      0x00\n        /* \"#utility.yul\":6143:6163   */\n      tag_240\n        /* \"#utility.yul\":6161:6162   */\n      dup3\n        /* \"#utility.yul\":6143:6163   */\n      tag_212\n      jump\t// in\n    tag_240:\n        /* \"#utility.yul\":6138:6163   */\n      swap2\n      pop\n        /* \"#utility.yul\":6177:6197   */\n      tag_241\n        /* \"#utility.yul\":6195:6196   */\n      dup4\n        /* \"#utility.yul\":6177:6197   */\n      tag_212\n      jump\t// in\n    tag_241:\n        /* \"#utility.yul\":6172:6197   */\n      swap3\n      pop\n        /* \"#utility.yul\":6216:6217   */\n      dup3\n        /* \"#utility.yul\":6213:6214   */\n      dup3\n        /* \"#utility.yul\":6210:6218   */\n      lt\n        /* \"#utility.yul\":6207:6241   */\n      iszero\n      tag_242\n      jumpi\n        /* \"#utility.yul\":6221:6239   */\n      tag_243\n      tag_238\n      jump\t// in\n    tag_243:\n        /* \"#utility.yul\":6207:6241   */\n    tag_242:\n        /* \"#utility.yul\":6266:6267   */\n      dup3\n        /* \"#utility.yul\":6263:6264   */\n      dup3\n        /* \"#utility.yul\":6259:6268   */\n      sub\n        /* \"#utility.yul\":6251:6268   */\n      swap1\n      pop\n        /* \"#utility.yul\":6083:6274   */\n      swap3\n      swap2\n      pop\n      pop\n      jump\t// out\n        /* \"#utility.yul\":6280:6376   */\n    tag_189:\n        /* \"#utility.yul\":6317:6324   */\n      0x00\n        /* \"#utility.yul\":6346:6370   */\n      tag_245\n        /* \"#utility.yul\":6364:6369   */\n      dup3\n        /* \"#utility.yul\":6346:6370   */\n      tag_246\n      jump\t// in\n    tag_245:\n        /* \"#utility.yul\":6335:6370   */\n      swap1\n      pop\n        /* \"#utility.yul\":6280:6376   */\n      swap2\n      swap1\n      pop\n      jump\t// out\n        /* \"#utility.yul\":6382:6472   */\n    tag_193:\n        /* \"#utility.yul\":6416:6423   */\n      0x00\n        /* \"#utility.yul\":6459:6464   */\n      dup2\n        /* \"#utility.yul\":6452:6465   */\n      iszero\n        /* \"#utility.yul\":6445:6466   */\n      iszero\n        /* \"#utility.yul\":6434:6466   */\n      swap1\n      pop\n        /* \"#utility.yul\":6382:6472   */\n      swap2\n      swap1\n      pop\n      jump\t// out\n        /* \"#utility.yul\":6478:6604   */\n    tag_246:\n        /* \"#utility.yul\":6515:6522   */\n      0x00\n        /* \"#utility.yul\":6555:6597   */\n      0xffffffffffffffffffffffffffffffffffffffff\n        /* \"#utility.yul\":6548:6553   */\n      dup3\n        /* \"#utility.yul\":6544:6598   */\n      and\n        /* \"#utility.yul\":6533:6598   */\n      swap1\n      pop\n        /* \"#utility.yul\":6478:6604   */\n      swap2\n      swap1\n      pop\n      jump\t// out\n        /* \"#utility.yul\":6610:6687   */\n    tag_212:\n        /* \"#utility.yul\":6647:6654   */\n      0x00\n        /* \"#utility.yul\":6676:6681   */\n      dup2\n        /* \"#utility.yul\":6665:6681   */\n      swap1\n      pop\n        /* \"#utility.yul\":6610:6687   */\n      swap2\n      swap1\n      pop\n      jump\t// out\n        /* \"#utility.yul\":6693:6779   */\n    tag_216:\n        /* \"#utility.yul\":6728:6735   */\n      0x00\n        /* \"#utility.yul\":6768:6772   */\n      0xff\n        /* \"#utility.yul\":6761:6766   */\n      dup3\n        /* \"#utility.yul\":6757:6773   */\n      and\n        /* \"#utility.yul\":6746:6773   */\n      swap1\n      pop\n        /* \"#utility.yul\":6693:6779   */\n      swap2\n      swap1\n      pop\n      jump\t// out\n        /* \"#utility.yul\":6785:7092   */\n    tag_201:\n        /* \"#utility.yul\":6853:6854   */\n      0x00\n        /* \"#utility.yul\":6863:6976   */\n    tag_252:\n        /* \"#utility.yul\":6877:6883   */\n      dup4\n        /* \"#utility.yul\":6874:6875   */\n      dup2\n        /* \"#utility.yul\":6871:6884   */\n      lt\n        /* \"#utility.yul\":6863:6976   */\n      iszero\n      tag_254\n      jumpi\n        /* \"#utility.yul\":6962:6963   */\n      dup1\n        /* \"#utility.yul\":6957:6960   */\n      dup3\n        /* \"#utility.yul\":6953:6964   */\n      add\n        /* \"#utility.yul\":6947:6965   */\n      mload\n        /* \"#utility.yul\":6943:6944   */\n      dup2\n        /* \"#utility.yul\":6938:6941   */\n      dup5\n        /* \"#utility.yul\":6934:6945   */\n      add\n        /* \"#utility.yul\":6927:6966   */\n      mstore\n        /* \"#utility.yul\":6899:6901   */\n      0x20\n        /* \"#utility.yul\":6896:6897   */\n      dup2\n        /* \"#utility.yul\":6892:6902   */\n      add\n        /* \"#utility.yul\":6887:6902   */\n      swap1\n      pop\n        /* \"#utility.yul\":6863:6976   */\n      jump(tag_252)\n    tag_254:\n        /* \"#utility.yul\":6994:7000   */\n      dup4\n        /* \"#utility.yul\":6991:6992   */\n      dup2\n        /* \"#utility.yul\":6988:7001   */\n      gt\n        /* \"#utility.yul\":6985:7086   */\n      iszero\n      tag_255\n      jumpi\n        /* \"#utility.yul\":7074:7075   */\n      0x00\n        /* \"#utility.yul\":7065:7071   */\n      dup5\n        /* \"#utility.yul\":7060:7063   */\n      dup5\n        /* \"#utility.yul\":7056:7072   */\n      add\n        /* \"#utility.yul\":7049:7076   */\n      mstore\n        /* \"#utility.yul\":6985:7086   */\n    tag_255:\n        /* \"#utility.yul\":6834:7092   */\n      pop\n        /* \"#utility.yul\":6785:7092   */\n      pop\n      pop\n      pop\n      jump\t// out\n        /* \"#utility.yul\":7098:7418   */\n    tag_100:\n        /* \"#utility.yul\":7142:7148   */\n      0x00\n        /* \"#utility.yul\":7179:7180   */\n      0x02\n        /* \"#utility.yul\":7173:7177   */\n      dup3\n        /* \"#utility.yul\":7169:7181   */\n      div\n        /* \"#utility.yul\":7159:7181   */\n      swap1\n      pop\n        /* \"#utility.yul\":7226:7227   */\n      0x01\n        /* \"#utility.yul\":7220:7224   */\n      dup3\n        /* \"#utility.yul\":7216:7228   */\n      and\n        /* \"#utility.yul\":7247:7265   */\n      dup1\n        /* \"#utility.yul\":7237:7318   */\n      tag_257\n      jumpi\n        /* \"#utility.yul\":7303:7307   */\n      0x7f\n        /* \"#utility.yul\":7295:7301   */\n      dup3\n        /* \"#utility.yul\":7291:7308   */\n      and\n        /* \"#utility.yul\":7281:7308   */\n      swap2\n      pop\n        /* \"#utility.yul\":7237:7318   */\n    tag_257:\n        /* \"#utility.yul\":7365:7367   */\n      0x20\n        /* \"#utility.yul\":7357:7363   */\n      dup3\n        /* \"#utility.yul\":7354:7368   */\n      lt\n        /* \"#utility.yul\":7334:7352   */\n      dup2\n        /* \"#utility.yul\":7331:7369   */\n      eq\n        /* \"#utility.yul\":7328:7412   */\n      iszero\n      tag_258\n      jumpi\n        /* \"#utility.yul\":7384:7402   */\n      tag_259\n      tag_260\n      jump\t// in\n    tag_259:\n        /* \"#utility.yul\":7328:7412   */\n    tag_258:\n        /* \"#utility.yul\":7149:7418   */\n      pop\n        /* \"#utility.yul\":7098:7418   */\n      swap2\n      swap1\n      pop\n      jump\t// out\n        /* \"#utility.yul\":7424:7604   */\n    tag_238:\n        /* \"#utility.yul\":7472:7549   */\n      0x4e487b7100000000000000000000000000000000000000000000000000000000\n        /* \"#utility.yul\":7469:7470   */\n      0x00\n        /* \"#utility.yul\":7462:7550   */\n      mstore\n        /* \"#utility.yul\":7569:7573   */\n      0x11\n        /* \"#utility.yul\":7566:7567   */\n      0x04\n        /* \"#utility.yul\":7559:7574   */\n      mstore\n        /* \"#utility.yul\":7593:7597   */\n      0x24\n        /* \"#utility.yul\":7590:7591   */\n      0x00\n        /* \"#utility.yul\":7583:7598   */\n      revert\n        /* \"#utility.yul\":7610:7790   */\n    tag_260:\n        /* \"#utility.yul\":7658:7735   */\n      0x4e487b7100000000000000000000000000000000000000000000000000000000\n        /* \"#utility.yul\":7655:7656   */\n      0x00\n        /* \"#utility.yul\":7648:7736   */\n      mstore\n        /* \"#utility.yul\":7755:7759   */\n      0x22\n        /* \"#utility.yul\":7752:7753   */\n      0x04\n        /* \"#utility.yul\":7745:7760   */\n      mstore\n        /* \"#utility.yul\":7779:7783   */\n      0x24\n        /* \"#utility.yul\":7776:7777   */\n      0x00\n        /* \"#utility.yul\":7769:7784   */\n      revert\n        /* \"#utility.yul\":7919:8036   */\n    tag_164:\n        /* \"#utility.yul\":8028:8029   */\n      0x00\n        /* \"#utility.yul\":8025:8026   */\n      dup1\n        /* \"#utility.yul\":8018:8030   */\n      revert\n        /* \"#utility.yul\":8042:8144   */\n    tag_203:\n        /* \"#utility.yul\":8083:8089   */\n      0x00\n        /* \"#utility.yul\":8134:8136   */\n      0x1f\n        /* \"#utility.yul\":8130:8137   */\n      not\n        /* \"#utility.yul\":8125:8127   */\n      0x1f\n        /* \"#utility.yul\":8118:8123   */\n      dup4\n        /* \"#utility.yul\":8114:8128   */\n      add\n        /* \"#utility.yul\":8110:8138   */\n      and\n        /* \"#utility.yul\":8100:8138   */\n      swap1\n      pop\n        /* \"#utility.yul\":8042:8144   */\n      swap2\n      swap1\n      pop\n      jump\t// out\n        /* \"#utility.yul\":8150:8321   */\n    tag_208:\n        /* \"#utility.yul\":8290:8313   */\n      0x61646d696e206f6e6c7920686173206163636573730000000000000000000000\n        /* \"#utility.yul\":8286:8287   */\n      0x00\n        /* \"#utility.yul\":8278:8284   */\n      dup3\n        /* \"#utility.yul\":8274:8288   */\n      add\n        /* \"#utility.yul\":8267:8314   */\n      mstore\n        /* \"#utility.yul\":8150:8321   */\n      pop\n      jump\t// out\n        /* \"#utility.yul\":8327:8449   */\n    tag_156:\n        /* \"#utility.yul\":8400:8424   */\n      tag_269\n        /* \"#utility.yul\":8418:8423   */\n      dup2\n        /* \"#utility.yul\":8400:8424   */\n      tag_189\n      jump\t// in\n    tag_269:\n        /* \"#utility.yul\":8393:8398   */\n      dup2\n        /* \"#utility.yul\":8390:8425   */\n      eq\n        /* \"#utility.yul\":8380:8443   */\n      tag_270\n      jumpi\n        /* \"#utility.yul\":8439:8440   */\n      0x00\n        /* \"#utility.yul\":8436:8437   */\n      dup1\n        /* \"#utility.yul\":8429:8441   */\n      revert\n        /* \"#utility.yul\":8380:8443   */\n    tag_270:\n        /* \"#utility.yul\":8327:8449   */\n      pop\n      jump\t// out\n        /* \"#utility.yul\":8455:8577   */\n    tag_160:\n        /* \"#utility.yul\":8528:8552   */\n      tag_272\n        /* \"#utility.yul\":8546:8551   */\n      dup2\n        /* \"#utility.yul\":8528:8552   */\n      tag_212\n      jump\t// in\n    tag_272:\n        /* \"#utility.yul\":8521:8526   */\n      dup2\n        /* \"#utility.yul\":8518:8553   */\n      eq\n        /* \"#utility.yul\":8508:8571   */\n      tag_273\n      jumpi\n        /* \"#utility.yul\":8567:8568   */\n      0x00\n        /* \"#utility.yul\":8564:8565   */\n      dup1\n        /* \"#utility.yul\":8557:8569   */\n      revert\n        /* \"#utility.yul\":8508:8571   */\n    tag_273:\n        /* \"#utility.yul\":8455:8577   */\n      pop\n      jump\t// out\n\n    auxdata: 0xa26469706673582212207bed0d2d9008d415cb5a0766c9d2e500bfc366570926aa43215d4a174ff0eee264736f6c63430008070033\n}\n",
				"bytecode": {
					"linkReferences": {},
					"object": "60806040523480156200001157600080fd5b50336000806101000a81548173ffffffffffffffffffffffffffffffffffffffff021916908373ffffffffffffffffffffffffffffffffffffffff1602179055506040518060400160405280600481526020017f4e65705400000000000000000000000000000000000000000000000000000000815250600290805190602001906200009f92919062000118565b506040518060400160405280600881526020017f4e6570546f6b656e00000000000000000000000000000000000000000000000081525060039080519060200190620000ed92919062000118565b506012600460006101000a81548160ff021916908360ff16021790555060006005819055506200022d565b8280546200012690620001c8565b90600052602060002090601f0160209004810192826200014a576000855562000196565b82601f106200016557805160ff191683800117855562000196565b8280016001018555821562000196579182015b828111156200019557825182559160200191906001019062000178565b5b509050620001a59190620001a9565b5090565b5b80821115620001c4576000816000905550600101620001aa565b5090565b60006002820490506001821680620001e157607f821691505b60208210811415620001f857620001f7620001fe565b5b50919050565b7f4e487b7100000000000000000000000000000000000000000000000000000000600052602260045260246000fd5b6113a5806200023d6000396000f3fe608060405234801561001057600080fd5b50600436106101215760003560e01c80637a81eced116100ad578063b09f126611610071578063b09f126614610322578063d28d885214610340578063d4ee1d901461035e578063dd62ed3e1461037c578063f2fde38b146103ac57610121565b80637a81eced146102565780638da5cb5b1461028657806395d89b41146102a457806397b4e10a146102c2578063a9059cbb146102f257610121565b80632f0e3120116100f45780632f0e3120146101c2578063313ce567146101e05780633eaaf86b146101fe57806370a082311461021c57806379ba50971461024c57610121565b806306fdde0314610126578063095ea7b31461014457806318160ddd1461017457806323b872dd14610192575b600080fd5b61012e6103c8565b60405161013b91906110cc565b60405180910390f35b61015e60048036038101906101599190610f91565b61045a565b60405161016b91906110b1565b60405180910390f35b61017c61054c565b604051610189919061110e565b60405180910390f35b6101ac60048036038101906101a79190610f3e565b610556565b6040516101b991906110b1565b60405180910390f35b6101ca6106c0565b6040516101d79190611129565b60405180910390f35b6101e86106d3565b6040516101f59190611129565b60405180910390f35b6102066106ea565b604051610213919061110e565b60405180910390f35b61023660048036038101906102319190610ed1565b6106f0565b604051610243919061110e565b60405180910390f35b610254610739565b005b610270600480360381019061026b9190610fd1565b6108d5565b60405161027d91906110b1565b60405180910390f35b61028e6109ff565b60405161029b9190611096565b60405180910390f35b6102ac610a23565b6040516102b991906110cc565b60405180910390f35b6102dc60048036038101906102d79190610fd1565b610ab5565b6040516102e991906110b1565b60405180910390f35b61030c60048036038101906103079190610f91565b610c2d565b60405161031991906110b1565b60405180910390f35b61032a610c42565b60405161033791906110cc565b60405180910390f35b610348610cd0565b60405161035591906110cc565b60405180910390f35b610366610d5e565b6040516103739190611096565b60405180910390f35b61039660048036038101906103919190610efe565b610d84565b6040516103a3919061110e565b60405180910390f35b6103c660048036038101906103c19190610ed1565b610e0b565b005b6060600380546103d790611272565b80601f016020809104026020016040519081016040528092919081815260200182805461040390611272565b80156104505780601f1061042557610100808354040283529160200191610450565b820191906000526020600020905b81548152906001019060200180831161043357829003601f168201915b5050505050905090565b600081600760003373ffffffffffffffffffffffffffffffffffffffff1673ffffffffffffffffffffffffffffffffffffffff16815260200190815260200160002060008573ffffffffffffffffffffffffffffffffffffffff1673ffffffffffffffffffffffffffffffffffffffff168152602001908152602001600020819055508273ffffffffffffffffffffffffffffffffffffffff163373ffffffffffffffffffffffffffffffffffffffff167f8c5be1e5ebec7d5bd14f71427d1e84f3dd0314c0f7b2291e5b200ac8c7c3b9258460405161053a919061110e565b60405180910390a36001905092915050565b6000600554905090565b600081600660008673ffffffffffffffffffffffffffffffffffffffff1673ffffffffffffffffffffffffffffffffffffffff1681526020019081526020016000205410156105a457600080fd5b81600660008673ffffffffffffffffffffffffffffffffffffffff1673ffffffffffffffffffffffffffffffffffffffff16815260200190815260200160002060008282546105f391906111b6565b9250508190555081600660008573ffffffffffffffffffffffffffffffffffffffff1673ffffffffffffffffffffffffffffffffffffffff16815260200190815260200160002060008282546106499190611160565b925050819055508273ffffffffffffffffffffffffffffffffffffffff168473ffffffffffffffffffffffffffffffffffffffff167fddf252ad1be2c89b69c2b068fc378daa952ba7f163c4a11628f55a4df523b3ef846040516106ad919061110e565b60405180910390a3600190509392505050565b600460009054906101000a900460ff1681565b6000600460009054906101000a900460ff16905090565b60055481565b6000600660008373ffffffffffffffffffffffffffffffffffffffff1673ffffffffffffffffffffffffffffffffffffffff168152602001908152602001600020549050919050565b600160009054906101000a900473ffffffffffffffffffffffffffffffffffffffff1673ffffffffffffffffffffffffffffffffffffffff163373ffffffffffffffffffffffffffffffffffffffff161461079357600080fd5b600160009054906101000a900473ffffffffffffffffffffffffffffffffffffffff1673ffffffffffffffffffffffffffffffffffffffff1660008054906101000a900473ffffffffffffffffffffffffffffffffffffffff1673ffffffffffffffffffffffffffffffffffffffff167f8be0079c531659141344cd1fd0a4f28419497f9722a3daafe3b4186f6b6457e060405160405180910390a3600160009054906101000a900473ffffffffffffffffffffffffffffffffffffffff166000806101000a81548173ffffffffffffffffffffffffffffffffffffffff021916908373ffffffffffffffffffffffffffffffffffffffff1602179055506000600160006101000a81548173ffffffffffffffffffffffffffffffffffffffff021916908373ffffffffffffffffffffffffffffffffffffffff160217905550565b60008060009054906101000a900473ffffffffffffffffffffffffffffffffffffffff1673ffffffffffffffffffffffffffffffffffffffff163373ffffffffffffffffffffffffffffffffffffffff1614610966576040517f08c379a000000000000000000000000000000000000000000000000000000000815260040161095d906110ee565b60405180910390fd5b81600560008282546109789190611160565b9250508190555081600660008060009054906101000a900473ffffffffffffffffffffffffffffffffffffffff1673ffffffffffffffffffffffffffffffffffffffff1673ffffffffffffffffffffffffffffffffffffffff16815260200190815260200160002060008282546109ef9190611160565b9250508190555060019050919050565b60008054906101000a900473ffffffffffffffffffffffffffffffffffffffff1681565b606060028054610a3290611272565b80601f0160208091040260200160405190810160405280929190818152602001828054610a5e90611272565b8015610aab5780601f10610a8057610100808354040283529160200191610aab565b820191906000526020600020905b815481529060010190602001808311610a8e57829003601f168201915b5050505050905090565b60008060009054906101000a900473ffffffffffffffffffffffffffffffffffffffff1673ffffffffffffffffffffffffffffffffffffffff163373ffffffffffffffffffffffffffffffffffffffff1614610b46576040517f08c379a0000000000000000000000000000000000000000000000000000000008152600401610b3d906110ee565b60405180910390fd5b8160056000828254610b5891906111b6565b9250508190555081600660008060009054906101000a900473ffffffffffffffffffffffffffffffffffffffff1673ffffffffffffffffffffffffffffffffffffffff1673ffffffffffffffffffffffffffffffffffffffff1681526020019081526020016000206000828254610bcf91906111b6565b925050819055503373ffffffffffffffffffffffffffffffffffffffff167f9dc29fac0ba6d4fc521c69c2b0c636d612e3343bc39ed934429b8876b0d12cba83604051610c1c919061110e565b60405180910390a260019050919050565b6000610c3a338484610556565b905092915050565b60028054610c4f90611272565b80601f0160208091040260200160405190810160405280929190818152602001828054610c7b90611272565b8015610cc85780601f10610c9d57610100808354040283529160200191610cc8565b820191906000526020600020905b815481529060010190602001808311610cab57829003601f168201915b505050505081565b60038054610cdd90611272565b80601f0160208091040260200160405190810160405280929190818152602001828054610d0990611272565b8015610d565780601f10610d2b57610100808354040283529160200191610d56565b820191906000526020600020905b815481529060010190602001808311610d3957829003601f168201915b505050505081565b600160009054906101000a900473ffffffffffffffffffffffffffffffffffffffff1681565b6000600760008473ffffffffffffffffffffffffffffffffffffffff1673ffffffffffffffffffffffffffffffffffffffff16815260200190815260200160002060008373ffffffffffffffffffffffffffffffffffffffff1673ffffffffffffffffffffffffffffffffffffffff16815260200190815260200160002054905092915050565b60008054906101000a900473ffffffffffffffffffffffffffffffffffffffff1673ffffffffffffffffffffffffffffffffffffffff163373ffffffffffffffffffffffffffffffffffffffff1614610e6357600080fd5b80600160006101000a81548173ffffffffffffffffffffffffffffffffffffffff021916908373ffffffffffffffffffffffffffffffffffffffff16021790555050565b600081359050610eb681611341565b92915050565b600081359050610ecb81611358565b92915050565b600060208284031215610ee757610ee6611302565b5b6000610ef584828501610ea7565b91505092915050565b60008060408385031215610f1557610f14611302565b5b6000610f2385828601610ea7565b9250506020610f3485828601610ea7565b9150509250929050565b600080600060608486031215610f5757610f56611302565b5b6000610f6586828701610ea7565b9350506020610f7686828701610ea7565b9250506040610f8786828701610ebc565b9150509250925092565b60008060408385031215610fa857610fa7611302565b5b6000610fb685828601610ea7565b9250506020610fc785828601610ebc565b9150509250929050565b600060208284031215610fe757610fe6611302565b5b6000610ff584828501610ebc565b91505092915050565b611007816111ea565b82525050565b611016816111fc565b82525050565b600061102782611144565b611031818561114f565b935061104181856020860161123f565b61104a81611307565b840191505092915050565b600061106260158361114f565b915061106d82611318565b602082019050919050565b61108181611228565b82525050565b61109081611232565b82525050565b60006020820190506110ab6000830184610ffe565b92915050565b60006020820190506110c6600083018461100d565b92915050565b600060208201905081810360008301526110e6818461101c565b905092915050565b6000602082019050818103600083015261110781611055565b9050919050565b60006020820190506111236000830184611078565b92915050565b600060208201905061113e6000830184611087565b92915050565b600081519050919050565b600082825260208201905092915050565b600061116b82611228565b915061117683611228565b9250827fffffffffffffffffffffffffffffffffffffffffffffffffffffffffffffffff038211156111ab576111aa6112a4565b5b828201905092915050565b60006111c182611228565b91506111cc83611228565b9250828210156111df576111de6112a4565b5b828203905092915050565b60006111f582611208565b9050919050565b60008115159050919050565b600073ffffffffffffffffffffffffffffffffffffffff82169050919050565b6000819050919050565b600060ff82169050919050565b60005b8381101561125d578082015181840152602081019050611242565b8381111561126c576000848401525b50505050565b6000600282049050600182168061128a57607f821691505b6020821081141561129e5761129d6112d3565b5b50919050565b7f4e487b7100000000000000000000000000000000000000000000000000000000600052601160045260246000fd5b7f4e487b7100000000000000000000000000000000000000000000000000000000600052602260045260246000fd5b600080fd5b6000601f19601f8301169050919050565b7f61646d696e206f6e6c7920686173206163636573730000000000000000000000600082015250565b61134a816111ea565b811461135557600080fd5b50565b61136181611228565b811461136c57600080fd5b5056fea26469706673582212207bed0d2d9008d415cb5a0766c9d2e500bfc366570926aa43215d4a174ff0eee264736f6c63430008070033",
					"opcodes": "PUSH1 0x80 PUSH1 0x40 MSTORE CALLVALUE DUP1 ISZERO PUSH3 0x11 JUMPI PUSH1 0x0 DUP1 REVERT JUMPDEST POP CALLER PUSH1 0x0 DUP1 PUSH2 0x100 EXP DUP2 SLOAD DUP2 PUSH20 0xFFFFFFFFFFFFFFFFFFFFFFFFFFFFFFFFFFFFFFFF MUL NOT AND SWAP1 DUP4 PUSH20 0xFFFFFFFFFFFFFFFFFFFFFFFFFFFFFFFFFFFFFFFF AND MUL OR SWAP1 SSTORE POP PUSH1 0x40 MLOAD DUP1 PUSH1 0x40 ADD PUSH1 0x40 MSTORE DUP1 PUSH1 0x4 DUP2 MSTORE PUSH1 0x20 ADD PUSH32 0x4E65705400000000000000000000000000000000000000000000000000000000 DUP2 MSTORE POP PUSH1 0x2 SWAP1 DUP1 MLOAD SWAP1 PUSH1 0x20 ADD SWAP1 PUSH3 0x9F SWAP3 SWAP2 SWAP1 PUSH3 0x118 JUMP JUMPDEST POP PUSH1 0x40 MLOAD DUP1 PUSH1 0x40 ADD PUSH1 0x40 MSTORE DUP1 PUSH1 0x8 DUP2 MSTORE PUSH1 0x20 ADD PUSH32 0x4E6570546F6B656E000000000000000000000000000000000000000000000000 DUP2 MSTORE POP PUSH1 0x3 SWAP1 DUP1 MLOAD SWAP1 PUSH1 0x20 ADD SWAP1 PUSH3 0xED SWAP3 SWAP2 SWAP1 PUSH3 0x118 JUMP JUMPDEST POP PUSH1 0x12 PUSH1 0x4 PUSH1 0x0 PUSH2 0x100 EXP DUP2 SLOAD DUP2 PUSH1 0xFF MUL NOT AND SWAP1 DUP4 PUSH1 0xFF AND MUL OR SWAP1 SSTORE POP PUSH1 0x0 PUSH1 0x5 DUP2 SWAP1 SSTORE POP PUSH3 0x22D JUMP JUMPDEST DUP3 DUP1 SLOAD PUSH3 0x126 SWAP1 PUSH3 0x1C8 JUMP JUMPDEST SWAP1 PUSH1 0x0 MSTORE PUSH1 0x20 PUSH1 0x0 KECCAK256 SWAP1 PUSH1 0x1F ADD PUSH1 0x20 SWAP1 DIV DUP2 ADD SWAP3 DUP3 PUSH3 0x14A JUMPI PUSH1 0x0 DUP6 SSTORE PUSH3 0x196 JUMP JUMPDEST DUP3 PUSH1 0x1F LT PUSH3 0x165 JUMPI DUP1 MLOAD PUSH1 0xFF NOT AND DUP4 DUP1 ADD OR DUP6 SSTORE PUSH3 0x196 JUMP JUMPDEST DUP3 DUP1 ADD PUSH1 0x1 ADD DUP6 SSTORE DUP3 ISZERO PUSH3 0x196 JUMPI SWAP2 DUP3 ADD JUMPDEST DUP3 DUP2 GT ISZERO PUSH3 0x195 JUMPI DUP3 MLOAD DUP3 SSTORE SWAP2 PUSH1 0x20 ADD SWAP2 SWAP1 PUSH1 0x1 ADD SWAP1 PUSH3 0x178 JUMP JUMPDEST JUMPDEST POP SWAP1 POP PUSH3 0x1A5 SWAP2 SWAP1 PUSH3 0x1A9 JUMP JUMPDEST POP SWAP1 JUMP JUMPDEST JUMPDEST DUP1 DUP3 GT ISZERO PUSH3 0x1C4 JUMPI PUSH1 0x0 DUP2 PUSH1 0x0 SWAP1 SSTORE POP PUSH1 0x1 ADD PUSH3 0x1AA JUMP JUMPDEST POP SWAP1 JUMP JUMPDEST PUSH1 0x0 PUSH1 0x2 DUP3 DIV SWAP1 POP PUSH1 0x1 DUP3 AND DUP1 PUSH3 0x1E1 JUMPI PUSH1 0x7F DUP3 AND SWAP2 POP JUMPDEST PUSH1 0x20 DUP3 LT DUP2 EQ ISZERO PUSH3 0x1F8 JUMPI PUSH3 0x1F7 PUSH3 0x1FE JUMP JUMPDEST JUMPDEST POP SWAP2 SWAP1 POP JUMP JUMPDEST PUSH32 0x4E487B7100000000000000000000000000000000000000000000000000000000 PUSH1 0x0 MSTORE PUSH1 0x22 PUSH1 0x4 MSTORE PUSH1 0x24 PUSH1 0x0 REVERT JUMPDEST PUSH2 0x13A5 DUP1 PUSH3 0x23D PUSH1 0x0 CODECOPY PUSH1 0x0 RETURN INVALID PUSH1 0x80 PUSH1 0x40 MSTORE CALLVALUE DUP1 ISZERO PUSH2 0x10 JUMPI PUSH1 0x0 DUP1 REVERT JUMPDEST POP PUSH1 0x4 CALLDATASIZE LT PUSH2 0x121 JUMPI PUSH1 0x0 CALLDATALOAD PUSH1 0xE0 SHR DUP1 PUSH4 0x7A81ECED GT PUSH2 0xAD JUMPI DUP1 PUSH4 0xB09F1266 GT PUSH2 0x71 JUMPI DUP1 PUSH4 0xB09F1266 EQ PUSH2 0x322 JUMPI DUP1 PUSH4 0xD28D8852 EQ PUSH2 0x340 JUMPI DUP1 PUSH4 0xD4EE1D90 EQ PUSH2 0x35E JUMPI DUP1 PUSH4 0xDD62ED3E EQ PUSH2 0x37C JUMPI DUP1 PUSH4 0xF2FDE38B EQ PUSH2 0x3AC JUMPI PUSH2 0x121 JUMP JUMPDEST DUP1 PUSH4 0x7A81ECED EQ PUSH2 0x256 JUMPI DUP1 PUSH4 0x8DA5CB5B EQ PUSH2 0x286 JUMPI DUP1 PUSH4 0x95D89B41 EQ PUSH2 0x2A4 JUMPI DUP1 PUSH4 0x97B4E10A EQ PUSH2 0x2C2 JUMPI DUP1 PUSH4 0xA9059CBB EQ PUSH2 0x2F2 JUMPI PUSH2 0x121 JUMP JUMPDEST DUP1 PUSH4 0x2F0E3120 GT PUSH2 0xF4 JUMPI DUP1 PUSH4 0x2F0E3120 EQ PUSH2 0x1C2 JUMPI DUP1 PUSH4 0x313CE567 EQ PUSH2 0x1E0 JUMPI DUP1 PUSH4 0x3EAAF86B EQ PUSH2 0x1FE JUMPI DUP1 PUSH4 0x70A08231 EQ PUSH2 0x21C JUMPI DUP1 PUSH4 0x79BA5097 EQ PUSH2 0x24C JUMPI PUSH2 0x121 JUMP JUMPDEST DUP1 PUSH4 0x6FDDE03 EQ PUSH2 0x126 JUMPI DUP1 PUSH4 0x95EA7B3 EQ PUSH2 0x144 JUMPI DUP1 PUSH4 0x18160DDD EQ PUSH2 0x174 JUMPI DUP1 PUSH4 0x23B872DD EQ PUSH2 0x192 JUMPI JUMPDEST PUSH1 0x0 DUP1 REVERT JUMPDEST PUSH2 0x12E PUSH2 0x3C8 JUMP JUMPDEST PUSH1 0x40 MLOAD PUSH2 0x13B SWAP2 SWAP1 PUSH2 0x10CC JUMP JUMPDEST PUSH1 0x40 MLOAD DUP1 SWAP2 SUB SWAP1 RETURN JUMPDEST PUSH2 0x15E PUSH1 0x4 DUP1 CALLDATASIZE SUB DUP2 ADD SWAP1 PUSH2 0x159 SWAP2 SWAP1 PUSH2 0xF91 JUMP JUMPDEST PUSH2 0x45A JUMP JUMPDEST PUSH1 0x40 MLOAD PUSH2 0x16B SWAP2 SWAP1 PUSH2 0x10B1 JUMP JUMPDEST PUSH1 0x40 MLOAD DUP1 SWAP2 SUB SWAP1 RETURN JUMPDEST PUSH2 0x17C PUSH2 0x54C JUMP JUMPDEST PUSH1 0x40 MLOAD PUSH2 0x189 SWAP2 SWAP1 PUSH2 0x110E JUMP JUMPDEST PUSH1 0x40 MLOAD DUP1 SWAP2 SUB SWAP1 RETURN JUMPDEST PUSH2 0x1AC PUSH1 0x4 DUP1 CALLDATASIZE SUB DUP2 ADD SWAP1 PUSH2 0x1A7 SWAP2 SWAP1 PUSH2 0xF3E JUMP JUMPDEST PUSH2 0x556 JUMP JUMPDEST PUSH1 0x40 MLOAD PUSH2 0x1B9 SWAP2 SWAP1 PUSH2 0x10B1 JUMP JUMPDEST PUSH1 0x40 MLOAD DUP1 SWAP2 SUB SWAP1 RETURN JUMPDEST PUSH2 0x1CA PUSH2 0x6C0 JUMP JUMPDEST PUSH1 0x40 MLOAD PUSH2 0x1D7 SWAP2 SWAP1 PUSH2 0x1129 JUMP JUMPDEST PUSH1 0x40 MLOAD DUP1 SWAP2 SUB SWAP1 RETURN JUMPDEST PUSH2 0x1E8 PUSH2 0x6D3 JUMP JUMPDEST PUSH1 0x40 MLOAD PUSH2 0x1F5 SWAP2 SWAP1 PUSH2 0x1129 JUMP JUMPDEST PUSH1 0x40 MLOAD DUP1 SWAP2 SUB SWAP1 RETURN JUMPDEST PUSH2 0x206 PUSH2 0x6EA JUMP JUMPDEST PUSH1 0x40 MLOAD PUSH2 0x213 SWAP2 SWAP1 PUSH2 0x110E JUMP JUMPDEST PUSH1 0x40 MLOAD DUP1 SWAP2 SUB SWAP1 RETURN JUMPDEST PUSH2 0x236 PUSH1 0x4 DUP1 CALLDATASIZE SUB DUP2 ADD SWAP1 PUSH2 0x231 SWAP2 SWAP1 PUSH2 0xED1 JUMP JUMPDEST PUSH2 0x6F0 JUMP JUMPDEST PUSH1 0x40 MLOAD PUSH2 0x243 SWAP2 SWAP1 PUSH2 0x110E JUMP JUMPDEST PUSH1 0x40 MLOAD DUP1 SWAP2 SUB SWAP1 RETURN JUMPDEST PUSH2 0x254 PUSH2 0x739 JUMP JUMPDEST STOP JUMPDEST PUSH2 0x270 PUSH1 0x4 DUP1 CALLDATASIZE SUB DUP2 ADD SWAP1 PUSH2 0x26B SWAP2 SWAP1 PUSH2 0xFD1 JUMP JUMPDEST PUSH2 0x8D5 JUMP JUMPDEST PUSH1 0x40 MLOAD PUSH2 0x27D SWAP2 SWAP1 PUSH2 0x10B1 JUMP JUMPDEST PUSH1 0x40 MLOAD DUP1 SWAP2 SUB SWAP1 RETURN JUMPDEST PUSH2 0x28E PUSH2 0x9FF JUMP JUMPDEST PUSH1 0x40 MLOAD PUSH2 0x29B SWAP2 SWAP1 PUSH2 0x1096 JUMP JUMPDEST PUSH1 0x40 MLOAD DUP1 SWAP2 SUB SWAP1 RETURN JUMPDEST PUSH2 0x2AC PUSH2 0xA23 JUMP JUMPDEST PUSH1 0x40 MLOAD PUSH2 0x2B9 SWAP2 SWAP1 PUSH2 0x10CC JUMP JUMPDEST PUSH1 0x40 MLOAD DUP1 SWAP2 SUB SWAP1 RETURN JUMPDEST PUSH2 0x2DC PUSH1 0x4 DUP1 CALLDATASIZE SUB DUP2 ADD SWAP1 PUSH2 0x2D7 SWAP2 SWAP1 PUSH2 0xFD1 JUMP JUMPDEST PUSH2 0xAB5 JUMP JUMPDEST PUSH1 0x40 MLOAD PUSH2 0x2E9 SWAP2 SWAP1 PUSH2 0x10B1 JUMP JUMPDEST PUSH1 0x40 MLOAD DUP1 SWAP2 SUB SWAP1 RETURN JUMPDEST PUSH2 0x30C PUSH1 0x4 DUP1 CALLDATASIZE SUB DUP2 ADD SWAP1 PUSH2 0x307 SWAP2 SWAP1 PUSH2 0xF91 JUMP JUMPDEST PUSH2 0xC2D JUMP JUMPDEST PUSH1 0x40 MLOAD PUSH2 0x319 SWAP2 SWAP1 PUSH2 0x10B1 JUMP JUMPDEST PUSH1 0x40 MLOAD DUP1 SWAP2 SUB SWAP1 RETURN JUMPDEST PUSH2 0x32A PUSH2 0xC42 JUMP JUMPDEST PUSH1 0x40 MLOAD PUSH2 0x337 SWAP2 SWAP1 PUSH2 0x10CC JUMP JUMPDEST PUSH1 0x40 MLOAD DUP1 SWAP2 SUB SWAP1 RETURN JUMPDEST PUSH2 0x348 PUSH2 0xCD0 JUMP JUMPDEST PUSH1 0x40 MLOAD PUSH2 0x355 SWAP2 SWAP1 PUSH2 0x10CC JUMP JUMPDEST PUSH1 0x40 MLOAD DUP1 SWAP2 SUB SWAP1 RETURN JUMPDEST PUSH2 0x366 PUSH2 0xD5E JUMP JUMPDEST PUSH1 0x40 MLOAD PUSH2 0x373 SWAP2 SWAP1 PUSH2 0x1096 JUMP JUMPDEST PUSH1 0x40 MLOAD DUP1 SWAP2 SUB SWAP1 RETURN JUMPDEST PUSH2 0x396 PUSH1 0x4 DUP1 CALLDATASIZE SUB DUP2 ADD SWAP1 PUSH2 0x391 SWAP2 SWAP1 PUSH2 0xEFE JUMP JUMPDEST PUSH2 0xD84 JUMP JUMPDEST PUSH1 0x40 MLOAD PUSH2 0x3A3 SWAP2 SWAP1 PUSH2 0x110E JUMP JUMPDEST PUSH1 0x40 MLOAD DUP1 SWAP2 SUB SWAP1 RETURN JUMPDEST PUSH2 0x3C6 PUSH1 0x4 DUP1 CALLDATASIZE SUB DUP2 ADD SWAP1 PUSH2 0x3C1 SWAP2 SWAP1 PUSH2 0xED1 JUMP JUMPDEST PUSH2 0xE0B JUMP JUMPDEST STOP JUMPDEST PUSH1 0x60 PUSH1 0x3 DUP1 SLOAD PUSH2 0x3D7 SWAP1 PUSH2 0x1272 JUMP JUMPDEST DUP1 PUSH1 0x1F ADD PUSH1 0x20 DUP1 SWAP2 DIV MUL PUSH1 0x20 ADD PUSH1 0x40 MLOAD SWAP1 DUP2 ADD PUSH1 0x40 MSTORE DUP1 SWAP3 SWAP2 SWAP1 DUP2 DUP2 MSTORE PUSH1 0x20 ADD DUP3 DUP1 SLOAD PUSH2 0x403 SWAP1 PUSH2 0x1272 JUMP JUMPDEST DUP1 ISZERO PUSH2 0x450 JUMPI DUP1 PUSH1 0x1F LT PUSH2 0x425 JUMPI PUSH2 0x100 DUP1 DUP4 SLOAD DIV MUL DUP4 MSTORE SWAP2 PUSH1 0x20 ADD SWAP2 PUSH2 0x450 JUMP JUMPDEST DUP3 ADD SWAP2 SWAP1 PUSH1 0x0 MSTORE PUSH1 0x20 PUSH1 0x0 KECCAK256 SWAP1 JUMPDEST DUP2 SLOAD DUP2 MSTORE SWAP1 PUSH1 0x1 ADD SWAP1 PUSH1 0x20 ADD DUP1 DUP4 GT PUSH2 0x433 JUMPI DUP3 SWAP1 SUB PUSH1 0x1F AND DUP3 ADD SWAP2 JUMPDEST POP POP POP POP POP SWAP1 POP SWAP1 JUMP JUMPDEST PUSH1 0x0 DUP2 PUSH1 0x7 PUSH1 0x0 CALLER PUSH20 0xFFFFFFFFFFFFFFFFFFFFFFFFFFFFFFFFFFFFFFFF AND PUSH20 0xFFFFFFFFFFFFFFFFFFFFFFFFFFFFFFFFFFFFFFFF AND DUP2 MSTORE PUSH1 0x20 ADD SWAP1 DUP2 MSTORE PUSH1 0x20 ADD PUSH1 0x0 KECCAK256 PUSH1 0x0 DUP6 PUSH20 0xFFFFFFFFFFFFFFFFFFFFFFFFFFFFFFFFFFFFFFFF AND PUSH20 0xFFFFFFFFFFFFFFFFFFFFFFFFFFFFFFFFFFFFFFFF AND DUP2 MSTORE PUSH1 0x20 ADD SWAP1 DUP2 MSTORE PUSH1 0x20 ADD PUSH1 0x0 KECCAK256 DUP2 SWAP1 SSTORE POP DUP3 PUSH20 0xFFFFFFFFFFFFFFFFFFFFFFFFFFFFFFFFFFFFFFFF AND CALLER PUSH20 0xFFFFFFFFFFFFFFFFFFFFFFFFFFFFFFFFFFFFFFFF AND PUSH32 0x8C5BE1E5EBEC7D5BD14F71427D1E84F3DD0314C0F7B2291E5B200AC8C7C3B925 DUP5 PUSH1 0x40 MLOAD PUSH2 0x53A SWAP2 SWAP1 PUSH2 0x110E JUMP JUMPDEST PUSH1 0x40 MLOAD DUP1 SWAP2 SUB SWAP1 LOG3 PUSH1 0x1 SWAP1 POP SWAP3 SWAP2 POP POP JUMP JUMPDEST PUSH1 0x0 PUSH1 0x5 SLOAD SWAP1 POP SWAP1 JUMP JUMPDEST PUSH1 0x0 DUP2 PUSH1 0x6 PUSH1 0x0 DUP7 PUSH20 0xFFFFFFFFFFFFFFFFFFFFFFFFFFFFFFFFFFFFFFFF AND PUSH20 0xFFFFFFFFFFFFFFFFFFFFFFFFFFFFFFFFFFFFFFFF AND DUP2 MSTORE PUSH1 0x20 ADD SWAP1 DUP2 MSTORE PUSH1 0x20 ADD PUSH1 0x0 KECCAK256 SLOAD LT ISZERO PUSH2 0x5A4 JUMPI PUSH1 0x0 DUP1 REVERT JUMPDEST DUP2 PUSH1 0x6 PUSH1 0x0 DUP7 PUSH20 0xFFFFFFFFFFFFFFFFFFFFFFFFFFFFFFFFFFFFFFFF AND PUSH20 0xFFFFFFFFFFFFFFFFFFFFFFFFFFFFFFFFFFFFFFFF AND DUP2 MSTORE PUSH1 0x20 ADD SWAP1 DUP2 MSTORE PUSH1 0x20 ADD PUSH1 0x0 KECCAK256 PUSH1 0x0 DUP3 DUP3 SLOAD PUSH2 0x5F3 SWAP2 SWAP1 PUSH2 0x11B6 JUMP JUMPDEST SWAP3 POP POP DUP2 SWAP1 SSTORE POP DUP2 PUSH1 0x6 PUSH1 0x0 DUP6 PUSH20 0xFFFFFFFFFFFFFFFFFFFFFFFFFFFFFFFFFFFFFFFF AND PUSH20 0xFFFFFFFFFFFFFFFFFFFFFFFFFFFFFFFFFFFFFFFF AND DUP2 MSTORE PUSH1 0x20 ADD SWAP1 DUP2 MSTORE PUSH1 0x20 ADD PUSH1 0x0 KECCAK256 PUSH1 0x0 DUP3 DUP3 SLOAD PUSH2 0x649 SWAP2 SWAP1 PUSH2 0x1160 JUMP JUMPDEST SWAP3 POP POP DUP2 SWAP1 SSTORE POP DUP3 PUSH20 0xFFFFFFFFFFFFFFFFFFFFFFFFFFFFFFFFFFFFFFFF AND DUP5 PUSH20 0xFFFFFFFFFFFFFFFFFFFFFFFFFFFFFFFFFFFFFFFF AND PUSH32 0xDDF252AD1BE2C89B69C2B068FC378DAA952BA7F163C4A11628F55A4DF523B3EF DUP5 PUSH1 0x40 MLOAD PUSH2 0x6AD SWAP2 SWAP1 PUSH2 0x110E JUMP JUMPDEST PUSH1 0x40 MLOAD DUP1 SWAP2 SUB SWAP1 LOG3 PUSH1 0x1 SWAP1 POP SWAP4 SWAP3 POP POP POP JUMP JUMPDEST PUSH1 0x4 PUSH1 0x0 SWAP1 SLOAD SWAP1 PUSH2 0x100 EXP SWAP1 DIV PUSH1 0xFF AND DUP2 JUMP JUMPDEST PUSH1 0x0 PUSH1 0x4 PUSH1 0x0 SWAP1 SLOAD SWAP1 PUSH2 0x100 EXP SWAP1 DIV PUSH1 0xFF AND SWAP1 POP SWAP1 JUMP JUMPDEST PUSH1 0x5 SLOAD DUP2 JUMP JUMPDEST PUSH1 0x0 PUSH1 0x6 PUSH1 0x0 DUP4 PUSH20 0xFFFFFFFFFFFFFFFFFFFFFFFFFFFFFFFFFFFFFFFF AND PUSH20 0xFFFFFFFFFFFFFFFFFFFFFFFFFFFFFFFFFFFFFFFF AND DUP2 MSTORE PUSH1 0x20 ADD SWAP1 DUP2 MSTORE PUSH1 0x20 ADD PUSH1 0x0 KECCAK256 SLOAD SWAP1 POP SWAP2 SWAP1 POP JUMP JUMPDEST PUSH1 0x1 PUSH1 0x0 SWAP1 SLOAD SWAP1 PUSH2 0x100 EXP SWAP1 DIV PUSH20 0xFFFFFFFFFFFFFFFFFFFFFFFFFFFFFFFFFFFFFFFF AND PUSH20 0xFFFFFFFFFFFFFFFFFFFFFFFFFFFFFFFFFFFFFFFF AND CALLER PUSH20 0xFFFFFFFFFFFFFFFFFFFFFFFFFFFFFFFFFFFFFFFF AND EQ PUSH2 0x793 JUMPI PUSH1 0x0 DUP1 REVERT JUMPDEST PUSH1 0x1 PUSH1 0x0 SWAP1 SLOAD SWAP1 PUSH2 0x100 EXP SWAP1 DIV PUSH20 0xFFFFFFFFFFFFFFFFFFFFFFFFFFFFFFFFFFFFFFFF AND PUSH20 0xFFFFFFFFFFFFFFFFFFFFFFFFFFFFFFFFFFFFFFFF AND PUSH1 0x0 DUP1 SLOAD SWAP1 PUSH2 0x100 EXP SWAP1 DIV PUSH20 0xFFFFFFFFFFFFFFFFFFFFFFFFFFFFFFFFFFFFFFFF AND PUSH20 0xFFFFFFFFFFFFFFFFFFFFFFFFFFFFFFFFFFFFFFFF AND PUSH32 0x8BE0079C531659141344CD1FD0A4F28419497F9722A3DAAFE3B4186F6B6457E0 PUSH1 0x40 MLOAD PUSH1 0x40 MLOAD DUP1 SWAP2 SUB SWAP1 LOG3 PUSH1 0x1 PUSH1 0x0 SWAP1 SLOAD SWAP1 PUSH2 0x100 EXP SWAP1 DIV PUSH20 0xFFFFFFFFFFFFFFFFFFFFFFFFFFFFFFFFFFFFFFFF AND PUSH1 0x0 DUP1 PUSH2 0x100 EXP DUP2 SLOAD DUP2 PUSH20 0xFFFFFFFFFFFFFFFFFFFFFFFFFFFFFFFFFFFFFFFF MUL NOT AND SWAP1 DUP4 PUSH20 0xFFFFFFFFFFFFFFFFFFFFFFFFFFFFFFFFFFFFFFFF AND MUL OR SWAP1 SSTORE POP PUSH1 0x0 PUSH1 0x1 PUSH1 0x0 PUSH2 0x100 EXP DUP2 SLOAD DUP2 PUSH20 0xFFFFFFFFFFFFFFFFFFFFFFFFFFFFFFFFFFFFFFFF MUL NOT AND SWAP1 DUP4 PUSH20 0xFFFFFFFFFFFFFFFFFFFFFFFFFFFFFFFFFFFFFFFF AND MUL OR SWAP1 SSTORE POP JUMP JUMPDEST PUSH1 0x0 DUP1 PUSH1 0x0 SWAP1 SLOAD SWAP1 PUSH2 0x100 EXP SWAP1 DIV PUSH20 0xFFFFFFFFFFFFFFFFFFFFFFFFFFFFFFFFFFFFFFFF AND PUSH20 0xFFFFFFFFFFFFFFFFFFFFFFFFFFFFFFFFFFFFFFFF AND CALLER PUSH20 0xFFFFFFFFFFFFFFFFFFFFFFFFFFFFFFFFFFFFFFFF AND EQ PUSH2 0x966 JUMPI PUSH1 0x40 MLOAD PUSH32 0x8C379A000000000000000000000000000000000000000000000000000000000 DUP2 MSTORE PUSH1 0x4 ADD PUSH2 0x95D SWAP1 PUSH2 0x10EE JUMP JUMPDEST PUSH1 0x40 MLOAD DUP1 SWAP2 SUB SWAP1 REVERT JUMPDEST DUP2 PUSH1 0x5 PUSH1 0x0 DUP3 DUP3 SLOAD PUSH2 0x978 SWAP2 SWAP1 PUSH2 0x1160 JUMP JUMPDEST SWAP3 POP POP DUP2 SWAP1 SSTORE POP DUP2 PUSH1 0x6 PUSH1 0x0 DUP1 PUSH1 0x0 SWAP1 SLOAD SWAP1 PUSH2 0x100 EXP SWAP1 DIV PUSH20 0xFFFFFFFFFFFFFFFFFFFFFFFFFFFFFFFFFFFFFFFF AND PUSH20 0xFFFFFFFFFFFFFFFFFFFFFFFFFFFFFFFFFFFFFFFF AND PUSH20 0xFFFFFFFFFFFFFFFFFFFFFFFFFFFFFFFFFFFFFFFF AND DUP2 MSTORE PUSH1 0x20 ADD SWAP1 DUP2 MSTORE PUSH1 0x20 ADD PUSH1 0x0 KECCAK256 PUSH1 0x0 DUP3 DUP3 SLOAD PUSH2 0x9EF SWAP2 SWAP1 PUSH2 0x1160 JUMP JUMPDEST SWAP3 POP POP DUP2 SWAP1 SSTORE POP PUSH1 0x1 SWAP1 POP SWAP2 SWAP1 POP JUMP JUMPDEST PUSH1 0x0 DUP1 SLOAD SWAP1 PUSH2 0x100 EXP SWAP1 DIV PUSH20 0xFFFFFFFFFFFFFFFFFFFFFFFFFFFFFFFFFFFFFFFF AND DUP2 JUMP JUMPDEST PUSH1 0x60 PUSH1 0x2 DUP1 SLOAD PUSH2 0xA32 SWAP1 PUSH2 0x1272 JUMP JUMPDEST DUP1 PUSH1 0x1F ADD PUSH1 0x20 DUP1 SWAP2 DIV MUL PUSH1 0x20 ADD PUSH1 0x40 MLOAD SWAP1 DUP2 ADD PUSH1 0x40 MSTORE DUP1 SWAP3 SWAP2 SWAP1 DUP2 DUP2 MSTORE PUSH1 0x20 ADD DUP3 DUP1 SLOAD PUSH2 0xA5E SWAP1 PUSH2 0x1272 JUMP JUMPDEST DUP1 ISZERO PUSH2 0xAAB JUMPI DUP1 PUSH1 0x1F LT PUSH2 0xA80 JUMPI PUSH2 0x100 DUP1 DUP4 SLOAD DIV MUL DUP4 MSTORE SWAP2 PUSH1 0x20 ADD SWAP2 PUSH2 0xAAB JUMP JUMPDEST DUP3 ADD SWAP2 SWAP1 PUSH1 0x0 MSTORE PUSH1 0x20 PUSH1 0x0 KECCAK256 SWAP1 JUMPDEST DUP2 SLOAD DUP2 MSTORE SWAP1 PUSH1 0x1 ADD SWAP1 PUSH1 0x20 ADD DUP1 DUP4 GT PUSH2 0xA8E JUMPI DUP3 SWAP1 SUB PUSH1 0x1F AND DUP3 ADD SWAP2 JUMPDEST POP POP POP POP POP SWAP1 POP SWAP1 JUMP JUMPDEST PUSH1 0x0 DUP1 PUSH1 0x0 SWAP1 SLOAD SWAP1 PUSH2 0x100 EXP SWAP1 DIV PUSH20 0xFFFFFFFFFFFFFFFFFFFFFFFFFFFFFFFFFFFFFFFF AND PUSH20 0xFFFFFFFFFFFFFFFFFFFFFFFFFFFFFFFFFFFFFFFF AND CALLER PUSH20 0xFFFFFFFFFFFFFFFFFFFFFFFFFFFFFFFFFFFFFFFF AND EQ PUSH2 0xB46 JUMPI PUSH1 0x40 MLOAD PUSH32 0x8C379A000000000000000000000000000000000000000000000000000000000 DUP2 MSTORE PUSH1 0x4 ADD PUSH2 0xB3D SWAP1 PUSH2 0x10EE JUMP JUMPDEST PUSH1 0x40 MLOAD DUP1 SWAP2 SUB SWAP1 REVERT JUMPDEST DUP2 PUSH1 0x5 PUSH1 0x0 DUP3 DUP3 SLOAD PUSH2 0xB58 SWAP2 SWAP1 PUSH2 0x11B6 JUMP JUMPDEST SWAP3 POP POP DUP2 SWAP1 SSTORE POP DUP2 PUSH1 0x6 PUSH1 0x0 DUP1 PUSH1 0x0 SWAP1 SLOAD SWAP1 PUSH2 0x100 EXP SWAP1 DIV PUSH20 0xFFFFFFFFFFFFFFFFFFFFFFFFFFFFFFFFFFFFFFFF AND PUSH20 0xFFFFFFFFFFFFFFFFFFFFFFFFFFFFFFFFFFFFFFFF AND PUSH20 0xFFFFFFFFFFFFFFFFFFFFFFFFFFFFFFFFFFFFFFFF AND DUP2 MSTORE PUSH1 0x20 ADD SWAP1 DUP2 MSTORE PUSH1 0x20 ADD PUSH1 0x0 KECCAK256 PUSH1 0x0 DUP3 DUP3 SLOAD PUSH2 0xBCF SWAP2 SWAP1 PUSH2 0x11B6 JUMP JUMPDEST SWAP3 POP POP DUP2 SWAP1 SSTORE POP CALLER PUSH20 0xFFFFFFFFFFFFFFFFFFFFFFFFFFFFFFFFFFFFFFFF AND PUSH32 0x9DC29FAC0BA6D4FC521C69C2B0C636D612E3343BC39ED934429B8876B0D12CBA DUP4 PUSH1 0x40 MLOAD PUSH2 0xC1C SWAP2 SWAP1 PUSH2 0x110E JUMP JUMPDEST PUSH1 0x40 MLOAD DUP1 SWAP2 SUB SWAP1 LOG2 PUSH1 0x1 SWAP1 POP SWAP2 SWAP1 POP JUMP JUMPDEST PUSH1 0x0 PUSH2 0xC3A CALLER DUP5 DUP5 PUSH2 0x556 JUMP JUMPDEST SWAP1 POP SWAP3 SWAP2 POP POP JUMP JUMPDEST PUSH1 0x2 DUP1 SLOAD PUSH2 0xC4F SWAP1 PUSH2 0x1272 JUMP JUMPDEST DUP1 PUSH1 0x1F ADD PUSH1 0x20 DUP1 SWAP2 DIV MUL PUSH1 0x20 ADD PUSH1 0x40 MLOAD SWAP1 DUP2 ADD PUSH1 0x40 MSTORE DUP1 SWAP3 SWAP2 SWAP1 DUP2 DUP2 MSTORE PUSH1 0x20 ADD DUP3 DUP1 SLOAD PUSH2 0xC7B SWAP1 PUSH2 0x1272 JUMP JUMPDEST DUP1 ISZERO PUSH2 0xCC8 JUMPI DUP1 PUSH1 0x1F LT PUSH2 0xC9D JUMPI PUSH2 0x100 DUP1 DUP4 SLOAD DIV MUL DUP4 MSTORE SWAP2 PUSH1 0x20 ADD SWAP2 PUSH2 0xCC8 JUMP JUMPDEST DUP3 ADD SWAP2 SWAP1 PUSH1 0x0 MSTORE PUSH1 0x20 PUSH1 0x0 KECCAK256 SWAP1 JUMPDEST DUP2 SLOAD DUP2 MSTORE SWAP1 PUSH1 0x1 ADD SWAP1 PUSH1 0x20 ADD DUP1 DUP4 GT PUSH2 0xCAB JUMPI DUP3 SWAP1 SUB PUSH1 0x1F AND DUP3 ADD SWAP2 JUMPDEST POP POP POP POP POP DUP2 JUMP JUMPDEST PUSH1 0x3 DUP1 SLOAD PUSH2 0xCDD SWAP1 PUSH2 0x1272 JUMP JUMPDEST DUP1 PUSH1 0x1F ADD PUSH1 0x20 DUP1 SWAP2 DIV MUL PUSH1 0x20 ADD PUSH1 0x40 MLOAD SWAP1 DUP2 ADD PUSH1 0x40 MSTORE DUP1 SWAP3 SWAP2 SWAP1 DUP2 DUP2 MSTORE PUSH1 0x20 ADD DUP3 DUP1 SLOAD PUSH2 0xD09 SWAP1 PUSH2 0x1272 JUMP JUMPDEST DUP1 ISZERO PUSH2 0xD56 JUMPI DUP1 PUSH1 0x1F LT PUSH2 0xD2B JUMPI PUSH2 0x100 DUP1 DUP4 SLOAD DIV MUL DUP4 MSTORE SWAP2 PUSH1 0x20 ADD SWAP2 PUSH2 0xD56 JUMP JUMPDEST DUP3 ADD SWAP2 SWAP1 PUSH1 0x0 MSTORE PUSH1 0x20 PUSH1 0x0 KECCAK256 SWAP1 JUMPDEST DUP2 SLOAD DUP2 MSTORE SWAP1 PUSH1 0x1 ADD SWAP1 PUSH1 0x20 ADD DUP1 DUP4 GT PUSH2 0xD39 JUMPI DUP3 SWAP1 SUB PUSH1 0x1F AND DUP3 ADD SWAP2 JUMPDEST POP POP POP POP POP DUP2 JUMP JUMPDEST PUSH1 0x1 PUSH1 0x0 SWAP1 SLOAD SWAP1 PUSH2 0x100 EXP SWAP1 DIV PUSH20 0xFFFFFFFFFFFFFFFFFFFFFFFFFFFFFFFFFFFFFFFF AND DUP2 JUMP JUMPDEST PUSH1 0x0 PUSH1 0x7 PUSH1 0x0 DUP5 PUSH20 0xFFFFFFFFFFFFFFFFFFFFFFFFFFFFFFFFFFFFFFFF AND PUSH20 0xFFFFFFFFFFFFFFFFFFFFFFFFFFFFFFFFFFFFFFFF AND DUP2 MSTORE PUSH1 0x20 ADD SWAP1 DUP2 MSTORE PUSH1 0x20 ADD PUSH1 0x0 KECCAK256 PUSH1 0x0 DUP4 PUSH20 0xFFFFFFFFFFFFFFFFFFFFFFFFFFFFFFFFFFFFFFFF AND PUSH20 0xFFFFFFFFFFFFFFFFFFFFFFFFFFFFFFFFFFFFFFFF AND DUP2 MSTORE PUSH1 0x20 ADD SWAP1 DUP2 MSTORE PUSH1 0x20 ADD PUSH1 0x0 KECCAK256 SLOAD SWAP1 POP SWAP3 SWAP2 POP POP JUMP JUMPDEST PUSH1 0x0 DUP1 SLOAD SWAP1 PUSH2 0x100 EXP SWAP1 DIV PUSH20 0xFFFFFFFFFFFFFFFFFFFFFFFFFFFFFFFFFFFFFFFF AND PUSH20 0xFFFFFFFFFFFFFFFFFFFFFFFFFFFFFFFFFFFFFFFF AND CALLER PUSH20 0xFFFFFFFFFFFFFFFFFFFFFFFFFFFFFFFFFFFFFFFF AND EQ PUSH2 0xE63 JUMPI PUSH1 0x0 DUP1 REVERT JUMPDEST DUP1 PUSH1 0x1 PUSH1 0x0 PUSH2 0x100 EXP DUP2 SLOAD DUP2 PUSH20 0xFFFFFFFFFFFFFFFFFFFFFFFFFFFFFFFFFFFFFFFF MUL NOT AND SWAP1 DUP4 PUSH20 0xFFFFFFFFFFFFFFFFFFFFFFFFFFFFFFFFFFFFFFFF AND MUL OR SWAP1 SSTORE POP POP JUMP JUMPDEST PUSH1 0x0 DUP2 CALLDATALOAD SWAP1 POP PUSH2 0xEB6 DUP2 PUSH2 0x1341 JUMP JUMPDEST SWAP3 SWAP2 POP POP JUMP JUMPDEST PUSH1 0x0 DUP2 CALLDATALOAD SWAP1 POP PUSH2 0xECB DUP2 PUSH2 0x1358 JUMP JUMPDEST SWAP3 SWAP2 POP POP JUMP JUMPDEST PUSH1 0x0 PUSH1 0x20 DUP3 DUP5 SUB SLT ISZERO PUSH2 0xEE7 JUMPI PUSH2 0xEE6 PUSH2 0x1302 JUMP JUMPDEST JUMPDEST PUSH1 0x0 PUSH2 0xEF5 DUP5 DUP3 DUP6 ADD PUSH2 0xEA7 JUMP JUMPDEST SWAP2 POP POP SWAP3 SWAP2 POP POP JUMP JUMPDEST PUSH1 0x0 DUP1 PUSH1 0x40 DUP4 DUP6 SUB SLT ISZERO PUSH2 0xF15 JUMPI PUSH2 0xF14 PUSH2 0x1302 JUMP JUMPDEST JUMPDEST PUSH1 0x0 PUSH2 0xF23 DUP6 DUP3 DUP7 ADD PUSH2 0xEA7 JUMP JUMPDEST SWAP3 POP POP PUSH1 0x20 PUSH2 0xF34 DUP6 DUP3 DUP7 ADD PUSH2 0xEA7 JUMP JUMPDEST SWAP2 POP POP SWAP3 POP SWAP3 SWAP1 POP JUMP JUMPDEST PUSH1 0x0 DUP1 PUSH1 0x0 PUSH1 0x60 DUP5 DUP7 SUB SLT ISZERO PUSH2 0xF57 JUMPI PUSH2 0xF56 PUSH2 0x1302 JUMP JUMPDEST JUMPDEST PUSH1 0x0 PUSH2 0xF65 DUP7 DUP3 DUP8 ADD PUSH2 0xEA7 JUMP JUMPDEST SWAP4 POP POP PUSH1 0x20 PUSH2 0xF76 DUP7 DUP3 DUP8 ADD PUSH2 0xEA7 JUMP JUMPDEST SWAP3 POP POP PUSH1 0x40 PUSH2 0xF87 DUP7 DUP3 DUP8 ADD PUSH2 0xEBC JUMP JUMPDEST SWAP2 POP POP SWAP3 POP SWAP3 POP SWAP3 JUMP JUMPDEST PUSH1 0x0 DUP1 PUSH1 0x40 DUP4 DUP6 SUB SLT ISZERO PUSH2 0xFA8 JUMPI PUSH2 0xFA7 PUSH2 0x1302 JUMP JUMPDEST JUMPDEST PUSH1 0x0 PUSH2 0xFB6 DUP6 DUP3 DUP7 ADD PUSH2 0xEA7 JUMP JUMPDEST SWAP3 POP POP PUSH1 0x20 PUSH2 0xFC7 DUP6 DUP3 DUP7 ADD PUSH2 0xEBC JUMP JUMPDEST SWAP2 POP POP SWAP3 POP SWAP3 SWAP1 POP JUMP JUMPDEST PUSH1 0x0 PUSH1 0x20 DUP3 DUP5 SUB SLT ISZERO PUSH2 0xFE7 JUMPI PUSH2 0xFE6 PUSH2 0x1302 JUMP JUMPDEST JUMPDEST PUSH1 0x0 PUSH2 0xFF5 DUP5 DUP3 DUP6 ADD PUSH2 0xEBC JUMP JUMPDEST SWAP2 POP POP SWAP3 SWAP2 POP POP JUMP JUMPDEST PUSH2 0x1007 DUP2 PUSH2 0x11EA JUMP JUMPDEST DUP3 MSTORE POP POP JUMP JUMPDEST PUSH2 0x1016 DUP2 PUSH2 0x11FC JUMP JUMPDEST DUP3 MSTORE POP POP JUMP JUMPDEST PUSH1 0x0 PUSH2 0x1027 DUP3 PUSH2 0x1144 JUMP JUMPDEST PUSH2 0x1031 DUP2 DUP6 PUSH2 0x114F JUMP JUMPDEST SWAP4 POP PUSH2 0x1041 DUP2 DUP6 PUSH1 0x20 DUP7 ADD PUSH2 0x123F JUMP JUMPDEST PUSH2 0x104A DUP2 PUSH2 0x1307 JUMP JUMPDEST DUP5 ADD SWAP2 POP POP SWAP3 SWAP2 POP POP JUMP JUMPDEST PUSH1 0x0 PUSH2 0x1062 PUSH1 0x15 DUP4 PUSH2 0x114F JUMP JUMPDEST SWAP2 POP PUSH2 0x106D DUP3 PUSH2 0x1318 JUMP JUMPDEST PUSH1 0x20 DUP3 ADD SWAP1 POP SWAP2 SWAP1 POP JUMP JUMPDEST PUSH2 0x1081 DUP2 PUSH2 0x1228 JUMP JUMPDEST DUP3 MSTORE POP POP JUMP JUMPDEST PUSH2 0x1090 DUP2 PUSH2 0x1232 JUMP JUMPDEST DUP3 MSTORE POP POP JUMP JUMPDEST PUSH1 0x0 PUSH1 0x20 DUP3 ADD SWAP1 POP PUSH2 0x10AB PUSH1 0x0 DUP4 ADD DUP5 PUSH2 0xFFE JUMP JUMPDEST SWAP3 SWAP2 POP POP JUMP JUMPDEST PUSH1 0x0 PUSH1 0x20 DUP3 ADD SWAP1 POP PUSH2 0x10C6 PUSH1 0x0 DUP4 ADD DUP5 PUSH2 0x100D JUMP JUMPDEST SWAP3 SWAP2 POP POP JUMP JUMPDEST PUSH1 0x0 PUSH1 0x20 DUP3 ADD SWAP1 POP DUP2 DUP2 SUB PUSH1 0x0 DUP4 ADD MSTORE PUSH2 0x10E6 DUP2 DUP5 PUSH2 0x101C JUMP JUMPDEST SWAP1 POP SWAP3 SWAP2 POP POP JUMP JUMPDEST PUSH1 0x0 PUSH1 0x20 DUP3 ADD SWAP1 POP DUP2 DUP2 SUB PUSH1 0x0 DUP4 ADD MSTORE PUSH2 0x1107 DUP2 PUSH2 0x1055 JUMP JUMPDEST SWAP1 POP SWAP2 SWAP1 POP JUMP JUMPDEST PUSH1 0x0 PUSH1 0x20 DUP3 ADD SWAP1 POP PUSH2 0x1123 PUSH1 0x0 DUP4 ADD DUP5 PUSH2 0x1078 JUMP JUMPDEST SWAP3 SWAP2 POP POP JUMP JUMPDEST PUSH1 0x0 PUSH1 0x20 DUP3 ADD SWAP1 POP PUSH2 0x113E PUSH1 0x0 DUP4 ADD DUP5 PUSH2 0x1087 JUMP JUMPDEST SWAP3 SWAP2 POP POP JUMP JUMPDEST PUSH1 0x0 DUP2 MLOAD SWAP1 POP SWAP2 SWAP1 POP JUMP JUMPDEST PUSH1 0x0 DUP3 DUP3 MSTORE PUSH1 0x20 DUP3 ADD SWAP1 POP SWAP3 SWAP2 POP POP JUMP JUMPDEST PUSH1 0x0 PUSH2 0x116B DUP3 PUSH2 0x1228 JUMP JUMPDEST SWAP2 POP PUSH2 0x1176 DUP4 PUSH2 0x1228 JUMP JUMPDEST SWAP3 POP DUP3 PUSH32 0xFFFFFFFFFFFFFFFFFFFFFFFFFFFFFFFFFFFFFFFFFFFFFFFFFFFFFFFFFFFFFFFF SUB DUP3 GT ISZERO PUSH2 0x11AB JUMPI PUSH2 0x11AA PUSH2 0x12A4 JUMP JUMPDEST JUMPDEST DUP3 DUP3 ADD SWAP1 POP SWAP3 SWAP2 POP POP JUMP JUMPDEST PUSH1 0x0 PUSH2 0x11C1 DUP3 PUSH2 0x1228 JUMP JUMPDEST SWAP2 POP PUSH2 0x11CC DUP4 PUSH2 0x1228 JUMP JUMPDEST SWAP3 POP DUP3 DUP3 LT ISZERO PUSH2 0x11DF JUMPI PUSH2 0x11DE PUSH2 0x12A4 JUMP JUMPDEST JUMPDEST DUP3 DUP3 SUB SWAP1 POP SWAP3 SWAP2 POP POP JUMP JUMPDEST PUSH1 0x0 PUSH2 0x11F5 DUP3 PUSH2 0x1208 JUMP JUMPDEST SWAP1 POP SWAP2 SWAP1 POP JUMP JUMPDEST PUSH1 0x0 DUP2 ISZERO ISZERO SWAP1 POP SWAP2 SWAP1 POP JUMP JUMPDEST PUSH1 0x0 PUSH20 0xFFFFFFFFFFFFFFFFFFFFFFFFFFFFFFFFFFFFFFFF DUP3 AND SWAP1 POP SWAP2 SWAP1 POP JUMP JUMPDEST PUSH1 0x0 DUP2 SWAP1 POP SWAP2 SWAP1 POP JUMP JUMPDEST PUSH1 0x0 PUSH1 0xFF DUP3 AND SWAP1 POP SWAP2 SWAP1 POP JUMP JUMPDEST PUSH1 0x0 JUMPDEST DUP4 DUP2 LT ISZERO PUSH2 0x125D JUMPI DUP1 DUP3 ADD MLOAD DUP2 DUP5 ADD MSTORE PUSH1 0x20 DUP2 ADD SWAP1 POP PUSH2 0x1242 JUMP JUMPDEST DUP4 DUP2 GT ISZERO PUSH2 0x126C JUMPI PUSH1 0x0 DUP5 DUP5 ADD MSTORE JUMPDEST POP POP POP POP JUMP JUMPDEST PUSH1 0x0 PUSH1 0x2 DUP3 DIV SWAP1 POP PUSH1 0x1 DUP3 AND DUP1 PUSH2 0x128A JUMPI PUSH1 0x7F DUP3 AND SWAP2 POP JUMPDEST PUSH1 0x20 DUP3 LT DUP2 EQ ISZERO PUSH2 0x129E JUMPI PUSH2 0x129D PUSH2 0x12D3 JUMP JUMPDEST JUMPDEST POP SWAP2 SWAP1 POP JUMP JUMPDEST PUSH32 0x4E487B7100000000000000000000000000000000000000000000000000000000 PUSH1 0x0 MSTORE PUSH1 0x11 PUSH1 0x4 MSTORE PUSH1 0x24 PUSH1 0x0 REVERT JUMPDEST PUSH32 0x4E487B7100000000000000000000000000000000000000000000000000000000 PUSH1 0x0 MSTORE PUSH1 0x22 PUSH1 0x4 MSTORE PUSH1 0x24 PUSH1 0x0 REVERT JUMPDEST PUSH1 0x0 DUP1 REVERT JUMPDEST PUSH1 0x0 PUSH1 0x1F NOT PUSH1 0x1F DUP4 ADD AND SWAP1 POP SWAP2 SWAP1 POP JUMP JUMPDEST PUSH32 0x61646D696E206F6E6C7920686173206163636573730000000000000000000000 PUSH1 0x0 DUP3 ADD MSTORE POP JUMP JUMPDEST PUSH2 0x134A DUP2 PUSH2 0x11EA JUMP JUMPDEST DUP2 EQ PUSH2 0x1355 JUMPI PUSH1 0x0 DUP1 REVERT JUMPDEST POP JUMP JUMPDEST PUSH2 0x1361 DUP2 PUSH2 0x1228 JUMP JUMPDEST DUP2 EQ PUSH2 0x136C JUMPI PUSH1 0x0 DUP1 REVERT JUMPDEST POP JUMP INVALID LOG2 PUSH5 0x6970667358 0x22 SLT KECCAK256 PUSH28 0xED0D2D9008D415CB5A0766C9D2E500BFC366570926AA43215D4A174F CREATE 0xEE 0xE2 PUSH5 0x736F6C6343 STOP ADDMOD SMOD STOP CALLER "
				},
				"gasEstimates": {
					"creation": {
						"codeDepositCost": "1005800",
						"executionCost": "infinite",
						"totalCost": "infinite"
					},
					"external": {
						"_burnToken(uint256)": "infinite",
						"_decimal()": "2494",
						"_mintToken(uint256)": "infinite",
						"_name()": "infinite",
						"_symbol()": "infinite",
						"_totalSupply()": "2496",
						"acceptOwnership()": "58909",
						"allowance(address,address)": "infinite",
						"approve(address,uint256)": "infinite",
						"balanceOf(address)": "2930",
						"decimals()": "2524",
						"name()": "infinite",
						"newOwner()": "2580",
						"owner()": "2556",
						"symbol()": "infinite",
						"totalSupply()": "2505",
						"transfer(address,uint256)": "infinite",
						"transferFrom(address,address,uint256)": "infinite",
						"transferOwnership(address)": "26999"
					}
				},
				"methodIdentifiers": {
					"_burnToken(uint256)": "97b4e10a",
					"_decimal()": "2f0e3120",
					"_mintToken(uint256)": "7a81eced",
					"_name()": "d28d8852",
					"_symbol()": "b09f1266",
					"_totalSupply()": "3eaaf86b",
					"acceptOwnership()": "79ba5097",
					"allowance(address,address)": "dd62ed3e",
					"approve(address,uint256)": "095ea7b3",
					"balanceOf(address)": "70a08231",
					"decimals()": "313ce567",
					"name()": "06fdde03",
					"newOwner()": "d4ee1d90",
					"owner()": "8da5cb5b",
					"symbol()": "95d89b41",
					"totalSupply()": "18160ddd",
					"transfer(address,uint256)": "a9059cbb",
					"transferFrom(address,address,uint256)": "23b872dd",
					"transferOwnership(address)": "f2fde38b"
				}
			},
			"storageLayout": {
				"storage": [
					{
						"astId": 249,
						"contract": "ERC-20/erc20.sol:NepToken",
						"label": "owner",
						"offset": 0,
						"slot": "0",
						"type": "t_address"
					},
					{
						"astId": 251,
						"contract": "ERC-20/erc20.sol:NepToken",
						"label": "newOwner",
						"offset": 0,
						"slot": "1",
						"type": "t_address"
					},
					{
						"astId": 317,
						"contract": "ERC-20/erc20.sol:NepToken",
						"label": "_symbol",
						"offset": 0,
						"slot": "2",
						"type": "t_string_storage"
					},
					{
						"astId": 319,
						"contract": "ERC-20/erc20.sol:NepToken",
						"label": "_name",
						"offset": 0,
						"slot": "3",
						"type": "t_string_storage"
					},
					{
						"astId": 321,
						"contract": "ERC-20/erc20.sol:NepToken",
						"label": "_decimal",
						"offset": 0,
						"slot": "4",
						"type": "t_uint8"
					},
					{
						"astId": 323,
						"contract": "ERC-20/erc20.sol:NepToken",
						"label": "_totalSupply",
						"offset": 0,
						"slot": "5",
						"type": "t_uint256"
					},
					{
						"astId": 327,
						"contract": "ERC-20/erc20.sol:NepToken",
						"label": "balances",
						"offset": 0,
						"slot": "6",
						"type": "t_mapping(t_address,t_uint256)"
					},
					{
						"astId": 333,
						"contract": "ERC-20/erc20.sol:NepToken",
						"label": "allowed",
						"offset": 0,
						"slot": "7",
						"type": "t_mapping(t_address,t_mapping(t_address,t_uint256))"
					}
				],
				"types": {
					"t_address": {
						"encoding": "inplace",
						"label": "address",
						"numberOfBytes": "20"
					},
					"t_mapping(t_address,t_mapping(t_address,t_uint256))": {
						"encoding": "mapping",
						"key": "t_address",
						"label": "mapping(address => mapping(address => uint256))",
						"numberOfBytes": "32",
						"value": "t_mapping(t_address,t_uint256)"
					},
					"t_mapping(t_address,t_uint256)": {
						"encoding": "mapping",
						"key": "t_address",
						"label": "mapping(address => uint256)",
						"numberOfBytes": "32",
						"value": "t_uint256"
					},
					"t_string_storage": {
						"encoding": "bytes",
						"label": "string",
						"numberOfBytes": "32"
					},
					"t_uint256": {
						"encoding": "inplace",
						"label": "uint256",
						"numberOfBytes": "32"
					},
					"t_uint8": {
						"encoding": "inplace",
						"label": "uint8",
						"numberOfBytes": "1"
					}
				}
			},
			"userdoc": {
				"kind": "user",
				"methods": {},
				"version": 1
			}
		}
	}
}